{"abi":[{"type":"constructor","inputs":[],"stateMutability":"nonpayable"},{"type":"function","name":"balanceOf","inputs":[{"name":"account","type":"address","internalType":"address"},{"name":"id","type":"uint256","internalType":"uint256"}],"outputs":[{"name":"","type":"uint256","internalType":"uint256"}],"stateMutability":"view"},{"type":"function","name":"balanceOfBatch","inputs":[{"name":"accounts","type":"address[]","internalType":"address[]"},{"name":"ids","type":"uint256[]","internalType":"uint256[]"}],"outputs":[{"name":"","type":"uint256[]","internalType":"uint256[]"}],"stateMutability":"view"},{"type":"function","name":"isApprovedForAll","inputs":[{"name":"account","type":"address","internalType":"address"},{"name":"operator","type":"address","internalType":"address"}],"outputs":[{"name":"","type":"bool","internalType":"bool"}],"stateMutability":"view"},{"type":"function","name":"mint","inputs":[{"name":"account","type":"address","internalType":"address"},{"name":"id","type":"uint256","internalType":"uint256"},{"name":"amount","type":"uint256","internalType":"uint256"},{"name":"data","type":"bytes","internalType":"bytes"}],"outputs":[],"stateMutability":"nonpayable"},{"type":"function","name":"mintBatch","inputs":[{"name":"to","type":"address","internalType":"address"},{"name":"ids","type":"uint256[]","internalType":"uint256[]"},{"name":"amounts","type":"uint256[]","internalType":"uint256[]"},{"name":"data","type":"bytes","internalType":"bytes"}],"outputs":[],"stateMutability":"nonpayable"},{"type":"function","name":"safeBatchTransferFrom","inputs":[{"name":"from","type":"address","internalType":"address"},{"name":"to","type":"address","internalType":"address"},{"name":"ids","type":"uint256[]","internalType":"uint256[]"},{"name":"values","type":"uint256[]","internalType":"uint256[]"},{"name":"data","type":"bytes","internalType":"bytes"}],"outputs":[],"stateMutability":"nonpayable"},{"type":"function","name":"safeTransferFrom","inputs":[{"name":"from","type":"address","internalType":"address"},{"name":"to","type":"address","internalType":"address"},{"name":"id","type":"uint256","internalType":"uint256"},{"name":"value","type":"uint256","internalType":"uint256"},{"name":"data","type":"bytes","internalType":"bytes"}],"outputs":[],"stateMutability":"nonpayable"},{"type":"function","name":"setApprovalForAll","inputs":[{"name":"operator","type":"address","internalType":"address"},{"name":"approved","type":"bool","internalType":"bool"}],"outputs":[],"stateMutability":"nonpayable"},{"type":"function","name":"supportsInterface","inputs":[{"name":"interfaceId","type":"bytes4","internalType":"bytes4"}],"outputs":[{"name":"","type":"bool","internalType":"bool"}],"stateMutability":"view"},{"type":"function","name":"uri","inputs":[{"name":"","type":"uint256","internalType":"uint256"}],"outputs":[{"name":"","type":"string","internalType":"string"}],"stateMutability":"view"},{"type":"event","name":"ApprovalForAll","inputs":[{"name":"account","type":"address","indexed":true,"internalType":"address"},{"name":"operator","type":"address","indexed":true,"internalType":"address"},{"name":"approved","type":"bool","indexed":false,"internalType":"bool"}],"anonymous":false},{"type":"event","name":"TransferBatch","inputs":[{"name":"operator","type":"address","indexed":true,"internalType":"address"},{"name":"from","type":"address","indexed":true,"internalType":"address"},{"name":"to","type":"address","indexed":true,"internalType":"address"},{"name":"ids","type":"uint256[]","indexed":false,"internalType":"uint256[]"},{"name":"values","type":"uint256[]","indexed":false,"internalType":"uint256[]"}],"anonymous":false},{"type":"event","name":"TransferSingle","inputs":[{"name":"operator","type":"address","indexed":true,"internalType":"address"},{"name":"from","type":"address","indexed":true,"internalType":"address"},{"name":"to","type":"address","indexed":true,"internalType":"address"},{"name":"id","type":"uint256","indexed":false,"internalType":"uint256"},{"name":"value","type":"uint256","indexed":false,"internalType":"uint256"}],"anonymous":false},{"type":"event","name":"URI","inputs":[{"name":"value","type":"string","indexed":false,"internalType":"string"},{"name":"id","type":"uint256","indexed":true,"internalType":"uint256"}],"anonymous":false},{"type":"error","name":"ERC1155InsufficientBalance","inputs":[{"name":"sender","type":"address","internalType":"address"},{"name":"balance","type":"uint256","internalType":"uint256"},{"name":"needed","type":"uint256","internalType":"uint256"},{"name":"tokenId","type":"uint256","internalType":"uint256"}]},{"type":"error","name":"ERC1155InvalidApprover","inputs":[{"name":"approver","type":"address","internalType":"address"}]},{"type":"error","name":"ERC1155InvalidArrayLength","inputs":[{"name":"idsLength","type":"uint256","internalType":"uint256"},{"name":"valuesLength","type":"uint256","internalType":"uint256"}]},{"type":"error","name":"ERC1155InvalidOperator","inputs":[{"name":"operator","type":"address","internalType":"address"}]},{"type":"error","name":"ERC1155InvalidReceiver","inputs":[{"name":"receiver","type":"address","internalType":"address"}]},{"type":"error","name":"ERC1155InvalidSender","inputs":[{"name":"sender","type":"address","internalType":"address"}]},{"type":"error","name":"ERC1155MissingApprovalForAll","inputs":[{"name":"operator","type":"address","internalType":"address"},{"name":"owner","type":"address","internalType":"address"}]}],"bytecode":{"object":"0x60806040523480156200001157600080fd5b50604051806080016040528060578152602001620014546057913962000037816200003e565b50620001c3565b60026200004c8282620000f7565b5050565b634e487b7160e01b600052604160045260246000fd5b600181811c908216806200007b57607f821691505b6020821081036200009c57634e487b7160e01b600052602260045260246000fd5b50919050565b601f821115620000f2576000816000526020600020601f850160051c81016020861015620000cd5750805b601f850160051c820191505b81811015620000ee57828155600101620000d9565b5050505b505050565b81516001600160401b0381111562000113576200011362000050565b6200012b8162000124845462000066565b84620000a2565b602080601f8311600181146200016357600084156200014a5750858301515b600019600386901b1c1916600185901b178555620000ee565b600085815260208120601f198616915b82811015620001945788860151825594840194600190910190840162000173565b5085821015620001b35787850151600019600388901b60f8161c191681555b5050505050600190811b01905550565b61128180620001d36000396000f3fe608060405234801561001057600080fd5b506004361061009d5760003560e01c80634e1273f4116100665780634e1273f414610133578063731133e914610153578063a22cb46514610166578063e985e9c514610179578063f242432a1461018c57600080fd5b8062fdd58e146100a257806301ffc9a7146100c85780630e89341c146100eb5780631f7fdffa1461010b5780632eb2c2d614610120575b600080fd5b6100b56100b0366004610b4e565b61019f565b6040519081526020015b60405180910390f35b6100db6100d6366004610b91565b6101c7565b60405190151581526020016100bf565b6100fe6100f9366004610bb5565b610217565b6040516100bf9190610c14565b61011e610119366004610d71565b6102ab565b005b61011e61012e366004610e0a565b6102bd565b610146610141366004610eb4565b610329565b6040516100bf9190610fb0565b61011e610161366004610fc3565b6103f6565b61011e610174366004611018565b610402565b6100db610187366004611054565b610411565b61011e61019a366004611087565b61043f565b6000818152602081815260408083206001600160a01b03861684529091529020545b92915050565b60006001600160e01b03198216636cdb3d1360e11b14806101f857506001600160e01b031982166303a24d0760e21b145b806101c157506301ffc9a760e01b6001600160e01b03198316146101c1565b606060028054610226906110ec565b80601f0160208091040260200160405190810160405280929190818152602001828054610252906110ec565b801561029f5780601f106102745761010080835404028352916020019161029f565b820191906000526020600020905b81548152906001019060200180831161028257829003601f168201915b50505050509050919050565b6102b78484848461049e565b50505050565b336001600160a01b03861681148015906102de57506102dc8682610411565b155b156103145760405163711bec9160e11b81526001600160a01b038083166004830152871660248201526044015b60405180910390fd5b61032186868686866104d6565b505050505050565b6060815183511461035a5781518351604051635b05999160e01b81526004810192909252602482015260440161030b565b6000835167ffffffffffffffff81111561037657610376610c27565b60405190808252806020026020018201604052801561039f578160200160208202803683370190505b50905060005b84518110156103ee576020808202860101516103c99060208084028701015161019f565b8282815181106103db576103db611126565b60209081029190910101526001016103a5565b509392505050565b6102b78484848461053d565b61040d33838361059a565b5050565b6001600160a01b03918216600090815260016020908152604080832093909416825291909152205460ff1690565b336001600160a01b0386168114801590610460575061045e8682610411565b155b156104915760405163711bec9160e11b81526001600160a01b0380831660048301528716602482015260440161030b565b6103218686868686610630565b6001600160a01b0384166104c857604051632bfa23e760e11b81526000600482015260240161030b565b6102b76000858585856106be565b6001600160a01b03841661050057604051632bfa23e760e11b81526000600482015260240161030b565b6001600160a01b03851661052957604051626a0d4560e21b81526000600482015260240161030b565b61053685858585856106be565b5050505050565b6001600160a01b03841661056757604051632bfa23e760e11b81526000600482015260240161030b565b604080516001808252602082018690528183019081526060820185905260808201909252906103216000878484876106be565b6001600160a01b0382166105c35760405162ced3e160e81b81526000600482015260240161030b565b6001600160a01b03838116600081815260016020908152604080832094871680845294825291829020805460ff191686151590811790915591519182527f17307eab39ab6107e8899845ad3d59bd9653f200f220920489ca2b5937696c31910160405180910390a3505050565b6001600160a01b03841661065a57604051632bfa23e760e11b81526000600482015260240161030b565b6001600160a01b03851661068357604051626a0d4560e21b81526000600482015260240161030b565b604080516001808252602082018690528183019081526060820185905260808201909252906106b587878484876106be565b50505050505050565b6106ca85858585610711565b6001600160a01b03841615610536578251339060010361070357602084810151908401516106fc838989858589610925565b5050610321565b610321818787878787610a49565b80518251146107405781518151604051635b05999160e01b81526004810192909252602482015260440161030b565b3360005b8351811015610846576020818102858101820151908501909101516001600160a01b038816156107f7576000828152602081815260408083206001600160a01b038c168452909152902054818110156107d0576040516303dee4c560e01b81526001600160a01b038a16600482015260248101829052604481018390526064810184905260840161030b565b6000838152602081815260408083206001600160a01b038d16845290915290209082900390555b6001600160a01b0387161561083c576000828152602081815260408083206001600160a01b038b1684529091528120805483929061083690849061113c565b90915550505b5050600101610744565b5082516001036108c75760208301516000906020840151909150856001600160a01b0316876001600160a01b0316846001600160a01b03167fc3d58168c5ae7397731d063d5bbf3d657854427343f4c083240f7aacaa2d0f6285856040516108b8929190918252602082015260400190565b60405180910390a45050610536565b836001600160a01b0316856001600160a01b0316826001600160a01b03167f4a39dc06d4c0dbc64b70af90fd698a233a518aa5d07e595d983b8c0526c8f7fb868660405161091692919061115d565b60405180910390a45050505050565b6001600160a01b0384163b156103215760405163f23a6e6160e01b81526001600160a01b0385169063f23a6e6190610969908990899088908890889060040161118b565b6020604051808303816000875af19250505080156109a4575060408051601f3d908101601f191682019092526109a1918101906111d0565b60015b610a0d573d8080156109d2576040519150601f19603f3d011682016040523d82523d6000602084013e6109d7565b606091505b508051600003610a0557604051632bfa23e760e11b81526001600160a01b038616600482015260240161030b565b805181602001fd5b6001600160e01b0319811663f23a6e6160e01b146106b557604051632bfa23e760e11b81526001600160a01b038616600482015260240161030b565b6001600160a01b0384163b156103215760405163bc197c8160e01b81526001600160a01b0385169063bc197c8190610a8d90899089908890889088906004016111ed565b6020604051808303816000875af1925050508015610ac8575060408051601f3d908101601f19168201909252610ac5918101906111d0565b60015b610af6573d8080156109d2576040519150601f19603f3d011682016040523d82523d6000602084013e6109d7565b6001600160e01b0319811663bc197c8160e01b146106b557604051632bfa23e760e11b81526001600160a01b038616600482015260240161030b565b80356001600160a01b0381168114610b4957600080fd5b919050565b60008060408385031215610b6157600080fd5b610b6a83610b32565b946020939093013593505050565b6001600160e01b031981168114610b8e57600080fd5b50565b600060208284031215610ba357600080fd5b8135610bae81610b78565b9392505050565b600060208284031215610bc757600080fd5b5035919050565b6000815180845260005b81811015610bf457602081850181015186830182015201610bd8565b506000602082860101526020601f19601f83011685010191505092915050565b602081526000610bae6020830184610bce565b634e487b7160e01b600052604160045260246000fd5b604051601f8201601f1916810167ffffffffffffffff81118282101715610c6657610c66610c27565b604052919050565b600067ffffffffffffffff821115610c8857610c88610c27565b5060051b60200190565b600082601f830112610ca357600080fd5b81356020610cb8610cb383610c6e565b610c3d565b8083825260208201915060208460051b870101935086841115610cda57600080fd5b602086015b84811015610cf65780358352918301918301610cdf565b509695505050505050565b600082601f830112610d1257600080fd5b813567ffffffffffffffff811115610d2c57610d2c610c27565b610d3f601f8201601f1916602001610c3d565b818152846020838601011115610d5457600080fd5b816020850160208301376000918101602001919091529392505050565b60008060008060808587031215610d8757600080fd5b610d9085610b32565b9350602085013567ffffffffffffffff80821115610dad57600080fd5b610db988838901610c92565b94506040870135915080821115610dcf57600080fd5b610ddb88838901610c92565b93506060870135915080821115610df157600080fd5b50610dfe87828801610d01565b91505092959194509250565b600080600080600060a08688031215610e2257600080fd5b610e2b86610b32565b9450610e3960208701610b32565b9350604086013567ffffffffffffffff80821115610e5657600080fd5b610e6289838a01610c92565b94506060880135915080821115610e7857600080fd5b610e8489838a01610c92565b93506080880135915080821115610e9a57600080fd5b50610ea788828901610d01565b9150509295509295909350565b60008060408385031215610ec757600080fd5b823567ffffffffffffffff80821115610edf57600080fd5b818501915085601f830112610ef357600080fd5b81356020610f03610cb383610c6e565b82815260059290921b84018101918181019089841115610f2257600080fd5b948201945b83861015610f4757610f3886610b32565b82529482019490820190610f27565b96505086013592505080821115610f5d57600080fd5b50610f6a85828601610c92565b9150509250929050565b60008151808452602080850194506020840160005b83811015610fa557815187529582019590820190600101610f89565b509495945050505050565b602081526000610bae6020830184610f74565b60008060008060808587031215610fd957600080fd5b610fe285610b32565b93506020850135925060408501359150606085013567ffffffffffffffff81111561100c57600080fd5b610dfe87828801610d01565b6000806040838503121561102b57600080fd5b61103483610b32565b91506020830135801515811461104957600080fd5b809150509250929050565b6000806040838503121561106757600080fd5b61107083610b32565b915061107e60208401610b32565b90509250929050565b600080600080600060a0868803121561109f57600080fd5b6110a886610b32565b94506110b660208701610b32565b93506040860135925060608601359150608086013567ffffffffffffffff8111156110e057600080fd5b610ea788828901610d01565b600181811c9082168061110057607f821691505b60208210810361112057634e487b7160e01b600052602260045260246000fd5b50919050565b634e487b7160e01b600052603260045260246000fd5b808201808211156101c157634e487b7160e01b600052601160045260246000fd5b6040815260006111706040830185610f74565b82810360208401526111828185610f74565b95945050505050565b6001600160a01b03868116825285166020820152604081018490526060810183905260a0608082018190526000906111c590830184610bce565b979650505050505050565b6000602082840312156111e257600080fd5b8151610bae81610b78565b6001600160a01b0386811682528516602082015260a06040820181905260009061121990830186610f74565b828103606084015261122b8186610f74565b9050828103608084015261123f8185610bce565b9897505050505050505056fea2646970667358221220e0e04b4f4992e42f37427562e06c2753ac27d9c35a1b1ddff4b0a4d24718a06c64736f6c6343000817003368747470733a2f2f697066732e696f2f697066732f6261667962656965787564327076657972327962656c706a76777a687079687735377465667261696266376a6e346365636f6c367175336a6961752f312e6a736f6e","linkReferences":{}},"methodIdentifiers":{"balanceOf(address,uint256)":"00fdd58e","balanceOfBatch(address[],uint256[])":"4e1273f4","isApprovedForAll(address,address)":"e985e9c5","mint(address,uint256,uint256,bytes)":"731133e9","mintBatch(address,uint256[],uint256[],bytes)":"1f7fdffa","safeBatchTransferFrom(address,address,uint256[],uint256[],bytes)":"2eb2c2d6","safeTransferFrom(address,address,uint256,uint256,bytes)":"f242432a","setApprovalForAll(address,bool)":"a22cb465","supportsInterface(bytes4)":"01ffc9a7","uri(uint256)":"0e89341c"},"id":63}