{
  "_format": "hh-sol-artifact-1",
  "contractName": "Staker",
  "sourceName": "contracts/contract.sol",
  "abi": [
    {
      "inputs": [],
      "stateMutability": "nonpayable",
      "type": "constructor"
    },
    {
      "inputs": [],
      "name": "funstake",
      "outputs": [],
      "stateMutability": "nonpayable",
      "type": "function"
    },
    {
      "inputs": [],
      "name": "stake",
      "outputs": [],
      "stateMutability": "payable",
      "type": "function"
    }
  ],
  "bytecode": "0x608060405234801561001057600080fd5b506102ee806100206000396000f3fe6080604052600436106100295760003560e01c80632939cde21461002e5780633a4b66f114610045575b600080fd5b34801561003a57600080fd5b5061004361004f565b005b61004d61017b565b005b600060026000803373ffffffffffffffffffffffffffffffffffffffff1673ffffffffffffffffffffffffffffffffffffffff1681526020019081526020016000205461009c91906101f9565b9050600081116100e1576040517f08c379a00000000000000000000000000000000000000000000000000000000081526004016100d890610298565b60405180910390fd5b60008060003373ffffffffffffffffffffffffffffffffffffffff1673ffffffffffffffffffffffffffffffffffffffff168152602001908152602001600020819055503373ffffffffffffffffffffffffffffffffffffffff166108fc82600261014c91906101f9565b9081150290604051600060405180830381858888f19350505050158015610177573d6000803e3d6000fd5b5050565b346000803373ffffffffffffffffffffffffffffffffffffffff1673ffffffffffffffffffffffffffffffffffffffff16815260200190815260200160002081905550565b6000819050919050565b7f4e487b7100000000000000000000000000000000000000000000000000000000600052601160045260246000fd5b6000610204826101c0565b915061020f836101c0565b925082820261021d816101c0565b91508282048414831517610234576102336101ca565b5b5092915050565b600082825260208201905092915050565b7f4e6f207374616b6520746f207769746864726177000000000000000000000000600082015250565b600061028260148361023b565b915061028d8261024c565b602082019050919050565b600060208201905081810360008301526102b181610275565b905091905056fea2646970667358221220fa8768499f414ed1d365b5c2f53968fec2c982f683ddf716b1442fea000ac27a64736f6c63430008180033",
  "linkReferences": {},
  "deployedLinkReferences": {}
}