{"abi":[{"type":"constructor","inputs":[{"name":"signer","type":"address","internalType":"address"}],"stateMutability":"nonpayable"},{"type":"function","name":"approve","inputs":[{"name":"to","type":"address","internalType":"address"},{"name":"tokenId","type":"uint256","internalType":"uint256"}],"outputs":[],"stateMutability":"nonpayable"},{"type":"function","name":"balanceOf","inputs":[{"name":"owner","type":"address","internalType":"address"}],"outputs":[{"name":"","type":"uint256","internalType":"uint256"}],"stateMutability":"view"},{"type":"function","name":"contractURI","inputs":[],"outputs":[{"name":"","type":"string","internalType":"string"}],"stateMutability":"view"},{"type":"function","name":"currentId","inputs":[],"outputs":[{"name":"","type":"uint256","internalType":"uint256"}],"stateMutability":"view"},{"type":"function","name":"freeMint","inputs":[{"name":"account","type":"address","internalType":"address"},{"name":"signature","type":"bytes","internalType":"bytes"}],"outputs":[],"stateMutability":"nonpayable"},{"type":"function","name":"freeMintSigner","inputs":[],"outputs":[{"name":"","type":"address","internalType":"address"}],"stateMutability":"view"},{"type":"function","name":"getApproved","inputs":[{"name":"tokenId","type":"uint256","internalType":"uint256"}],"outputs":[{"name":"","type":"address","internalType":"address"}],"stateMutability":"view"},{"type":"function","name":"getBytesToSign","inputs":[{"name":"account","type":"address","internalType":"address"}],"outputs":[{"name":"","type":"bytes32","internalType":"bytes32"}],"stateMutability":"pure"},{"type":"function","name":"getOpenEditionUri","inputs":[{"name":"token","type":"uint256","internalType":"uint256"}],"outputs":[{"name":"","type":"string","internalType":"string"}],"stateMutability":"view"},{"type":"function","name":"getStringToSign","inputs":[{"name":"account","type":"address","internalType":"address"}],"outputs":[{"name":"","type":"string","internalType":"string"}],"stateMutability":"pure"},{"type":"function","name":"imageUri","inputs":[],"outputs":[{"name":"","type":"string","internalType":"string"}],"stateMutability":"view"},{"type":"function","name":"isApprovedForAll","inputs":[{"name":"owner","type":"address","internalType":"address"},{"name":"operator","type":"address","internalType":"address"}],"outputs":[{"name":"","type":"bool","internalType":"bool"}],"stateMutability":"view"},{"type":"function","name":"metadata","inputs":[],"outputs":[{"name":"name","type":"string","internalType":"string"},{"name":"description","type":"string","internalType":"string"},{"name":"symbol","type":"string","internalType":"string"},{"name":"image","type":"string","internalType":"string"},{"name":"animation_url","type":"string","internalType":"string"}],"stateMutability":"view"},{"type":"function","name":"mint","inputs":[{"name":"account","type":"address","internalType":"address"}],"outputs":[],"stateMutability":"payable"},{"type":"function","name":"name","inputs":[],"outputs":[{"name":"","type":"string","internalType":"string"}],"stateMutability":"view"},{"type":"function","name":"ownerOf","inputs":[{"name":"tokenId","type":"uint256","internalType":"uint256"}],"outputs":[{"name":"","type":"address","internalType":"address"}],"stateMutability":"view"},{"type":"function","name":"paidMintCost","inputs":[],"outputs":[{"name":"","type":"uint256","internalType":"uint256"}],"stateMutability":"view"},{"type":"function","name":"safeTransferFrom","inputs":[{"name":"from","type":"address","internalType":"address"},{"name":"to","type":"address","internalType":"address"},{"name":"tokenId","type":"uint256","internalType":"uint256"}],"outputs":[],"stateMutability":"nonpayable"},{"type":"function","name":"safeTransferFrom","inputs":[{"name":"from","type":"address","internalType":"address"},{"name":"to","type":"address","internalType":"address"},{"name":"tokenId","type":"uint256","internalType":"uint256"},{"name":"data","type":"bytes","internalType":"bytes"}],"outputs":[],"stateMutability":"nonpayable"},{"type":"function","name":"setApprovalForAll","inputs":[{"name":"operator","type":"address","internalType":"address"},{"name":"approved","type":"bool","internalType":"bool"}],"outputs":[],"stateMutability":"nonpayable"},{"type":"function","name":"supportsInterface","inputs":[{"name":"interfaceId","type":"bytes4","internalType":"bytes4"}],"outputs":[{"name":"","type":"bool","internalType":"bool"}],"stateMutability":"view"},{"type":"function","name":"symbol","inputs":[],"outputs":[{"name":"","type":"string","internalType":"string"}],"stateMutability":"view"},{"type":"function","name":"tokenURI","inputs":[{"name":"tokenId","type":"uint256","internalType":"uint256"}],"outputs":[{"name":"","type":"string","internalType":"string"}],"stateMutability":"view"},{"type":"function","name":"transferFrom","inputs":[{"name":"from","type":"address","internalType":"address"},{"name":"to","type":"address","internalType":"address"},{"name":"tokenId","type":"uint256","internalType":"uint256"}],"outputs":[],"stateMutability":"nonpayable"},{"type":"function","name":"usedFreeMints","inputs":[{"name":"","type":"address","internalType":"address"}],"outputs":[{"name":"","type":"uint256","internalType":"uint256"}],"stateMutability":"view"},{"type":"function","name":"verifySignature","inputs":[{"name":"account","type":"address","internalType":"address"},{"name":"signature","type":"bytes","internalType":"bytes"}],"outputs":[{"name":"","type":"bool","internalType":"bool"}],"stateMutability":"view"},{"type":"event","name":"Approval","inputs":[{"name":"owner","type":"address","indexed":true,"internalType":"address"},{"name":"approved","type":"address","indexed":true,"internalType":"address"},{"name":"tokenId","type":"uint256","indexed":true,"internalType":"uint256"}],"anonymous":false},{"type":"event","name":"ApprovalForAll","inputs":[{"name":"owner","type":"address","indexed":true,"internalType":"address"},{"name":"operator","type":"address","indexed":true,"internalType":"address"},{"name":"approved","type":"bool","indexed":false,"internalType":"bool"}],"anonymous":false},{"type":"event","name":"Mint","inputs":[{"name":"buyer","type":"address","indexed":true,"internalType":"address"},{"name":"tokenId","type":"uint256","indexed":false,"internalType":"uint256"},{"name":"cost","type":"uint256","indexed":false,"internalType":"uint256"}],"anonymous":false},{"type":"event","name":"Transfer","inputs":[{"name":"from","type":"address","indexed":true,"internalType":"address"},{"name":"to","type":"address","indexed":true,"internalType":"address"},{"name":"tokenId","type":"uint256","indexed":true,"internalType":"uint256"}],"anonymous":false},{"type":"error","name":"ECDSAInvalidSignature","inputs":[]},{"type":"error","name":"ECDSAInvalidSignatureLength","inputs":[{"name":"length","type":"uint256","internalType":"uint256"}]},{"type":"error","name":"ECDSAInvalidSignatureS","inputs":[{"name":"s","type":"bytes32","internalType":"bytes32"}]},{"type":"error","name":"ERC721IncorrectOwner","inputs":[{"name":"sender","type":"address","internalType":"address"},{"name":"tokenId","type":"uint256","internalType":"uint256"},{"name":"owner","type":"address","internalType":"address"}]},{"type":"error","name":"ERC721InsufficientApproval","inputs":[{"name":"operator","type":"address","internalType":"address"},{"name":"tokenId","type":"uint256","internalType":"uint256"}]},{"type":"error","name":"ERC721InvalidApprover","inputs":[{"name":"approver","type":"address","internalType":"address"}]},{"type":"error","name":"ERC721InvalidOperator","inputs":[{"name":"operator","type":"address","internalType":"address"}]},{"type":"error","name":"ERC721InvalidOwner","inputs":[{"name":"owner","type":"address","internalType":"address"}]},{"type":"error","name":"ERC721InvalidReceiver","inputs":[{"name":"receiver","type":"address","internalType":"address"}]},{"type":"error","name":"ERC721InvalidSender","inputs":[{"name":"sender","type":"address","internalType":"address"}]},{"type":"error","name":"ERC721NonexistentToken","inputs":[{"name":"tokenId","type":"uint256","internalType":"uint256"}]},{"type":"error","name":"InsufficientFunds","inputs":[]},{"type":"error","name":"StringsInsufficientHexLength","inputs":[{"name":"value","type":"uint256","internalType":"uint256"},{"name":"length","type":"uint256","internalType":"uint256"}]}],"bytecode":{"object":"0x600961014090815268436f66666565446f6760b81b6101605260a0908152601261018090815271427579206120646f67206120636f6666656560701b6101a05260c05260046101c09081526343444f4760e01b6101e05260e0526102806040526044610200818152610100916200294261022039815260408051602081810190925260008152910152805160089081906200009b90826200032f565b5060208201516001820190620000b290826200032f565b5060408201516002820190620000c990826200032f565b5060608201516003820190620000e090826200032f565b5060808201516004820190620000f790826200032f565b5050503480156200010757600080fd5b5060405162002986380380620029868339810160408190526200012a91620003fb565b6008805462000139906200029e565b80601f016020809104026020016040519081016040528092919081815260200182805462000167906200029e565b8015620001b85780601f106200018c57610100808354040283529160200191620001b8565b820191906000526020600020905b8154815290600101906020018083116200019a57829003601f168201915b505050505060086002018054620001cf906200029e565b80601f0160208091040260200160405190810160405280929190818152602001828054620001fd906200029e565b80156200024e5780601f1062000222576101008083540402835291602001916200024e565b820191906000526020600020905b8154815290600101906020018083116200023057829003601f168201915b505050505081600090816200026491906200032f565b5060016200027382826200032f565b5050506001600160a01b03166080526200042d565b634e487b7160e01b600052604160045260246000fd5b600181811c90821680620002b357607f821691505b602082108103620002d457634e487b7160e01b600052602260045260246000fd5b50919050565b601f8211156200032a576000816000526020600020601f850160051c81016020861015620003055750805b601f850160051c820191505b81811015620003265782815560010162000311565b5050505b505050565b81516001600160401b038111156200034b576200034b62000288565b62000363816200035c84546200029e565b84620002da565b602080601f8311600181146200039b5760008415620003825750858301515b600019600386901b1c1916600185901b17855562000326565b600085815260208120601f198616915b82811015620003cc57888601518255948401946001909101908401620003ab565b5085821015620003eb5787850151600019600388901b60f8161c191681555b5050505050600190811b01905550565b6000602082840312156200040e57600080fd5b81516001600160a01b03811681146200042657600080fd5b9392505050565b6080516124f26200045060003960008181610421015261073501526124f26000f3fe6080604052600436106101815760003560e01c80636d9495bd116100d1578063b94a21021161008a578063e00dd16111610064578063e00dd16114610483578063e8a3d48514610499578063e985e9c5146104ae578063fe9635cc146104ce57600080fd5b8063b94a21021461040f578063c87b56dd14610443578063cfbb3cc41461046357600080fd5b80636d9495bd1461034d57806370a082311461037a57806395d89b411461039a578063a22cb465146103af578063b5317785146103cf578063b88d4fde146103ef57600080fd5b8063258c1ef51161013e57806354a76f4a1161011857806354a76f4a146102d257806357a4289b146102f25780636352211e1461031a5780636a6278421461033a57600080fd5b8063258c1ef51461026c578063392f37e91461028c57806342842e0e146102b257600080fd5b806301ffc9a71461018657806306fdde03146101bb578063081812fc146101dd578063095ea7b3146102155780630bf82da41461023757806323b872dd1461024c575b600080fd5b34801561019257600080fd5b506101a66101a1366004611c42565b6104ee565b60405190151581526020015b60405180910390f35b3480156101c757600080fd5b506101d0610540565b6040516101b29190611caf565b3480156101e957600080fd5b506101fd6101f8366004611cc2565b6105d2565b6040516001600160a01b0390911681526020016101b2565b34801561022157600080fd5b50610235610230366004611cf7565b6105fb565b005b34801561024357600080fd5b506101d061060a565b34801561025857600080fd5b50610235610267366004611d21565b610626565b34801561027857600080fd5b506101a6610287366004611e00565b6106b6565b34801561029857600080fd5b506102a1610772565b6040516101b2959493929190611e4e565b3480156102be57600080fd5b506102356102cd366004611d21565b610a3c565b3480156102de57600080fd5b506101d06102ed366004611cc2565b610a5c565b3480156102fe57600080fd5b5061030c655af3107a400081565b6040519081526020016101b2565b34801561032657600080fd5b506101fd610335366004611cc2565b610cc3565b610235610348366004611ebb565b610cce565b34801561035957600080fd5b5061030c610368366004611ebb565b60076020526000908152604090205481565b34801561038657600080fd5b5061030c610395366004611ebb565b610d60565b3480156103a657600080fd5b506101d0610da8565b3480156103bb57600080fd5b506102356103ca366004611ee4565b610db7565b3480156103db57600080fd5b506101d06103ea366004611ebb565b610dc2565b3480156103fb57600080fd5b5061023561040a366004611f1b565b610dfe565b34801561041b57600080fd5b506101fd7f000000000000000000000000000000000000000000000000000000000000000081565b34801561044f57600080fd5b506101d061045e366004611cc2565b610e16565b34801561046f57600080fd5b5061023561047e366004611e00565b610e76565b34801561048f57600080fd5b5061030c60065481565b3480156104a557600080fd5b506101d0611002565b3480156104ba57600080fd5b506101a66104c9366004611f83565b611102565b3480156104da57600080fd5b5061030c6104e9366004611ebb565b611130565b60006001600160e01b031982166380ac58cd60e01b148061051f57506001600160e01b03198216635b5e139f60e01b145b8061053a57506301ffc9a760e01b6001600160e01b03198316145b92915050565b60606000805461054f90611fb6565b80601f016020809104026020016040519081016040528092919081815260200182805461057b90611fb6565b80156105c85780601f1061059d576101008083540402835291602001916105c8565b820191906000526020600020905b8154815290600101906020018083116105ab57829003601f168201915b5050505050905090565b60006105dd8261116d565b506000828152600460205260409020546001600160a01b031661053a565b6106068282336111a6565b5050565b6040518060800160405280604481526020016124796044913981565b6001600160a01b03821661065557604051633250574960e11b8152600060048201526024015b60405180910390fd5b60006106628383336111b3565b9050836001600160a01b0316816001600160a01b0316146106b0576040516364283d7b60e01b81526001600160a01b038086166004830152602482018490528216604482015260640161064c565b50505050565b604051633fa58d7360e21b81526001600160a01b03831660048201526000908190309063fe9635cc90602401602060405180830381865afa1580156106ff573d6000803e3d6000fd5b505050506040513d601f19601f820116820180604052508101906107239190611ff0565b9050600061073182856112ac565b90507f00000000000000000000000000000000000000000000000000000000000000006001600160a01b0316816001600160a01b0316149250505092915050565b60088054819061078190611fb6565b80601f01602080910402602001604051908101604052809291908181526020018280546107ad90611fb6565b80156107fa5780601f106107cf576101008083540402835291602001916107fa565b820191906000526020600020905b8154815290600101906020018083116107dd57829003601f168201915b50505050509080600101805461080f90611fb6565b80601f016020809104026020016040519081016040528092919081815260200182805461083b90611fb6565b80156108885780601f1061085d57610100808354040283529160200191610888565b820191906000526020600020905b81548152906001019060200180831161086b57829003601f168201915b50505050509080600201805461089d90611fb6565b80601f01602080910402602001604051908101604052809291908181526020018280546108c990611fb6565b80156109165780601f106108eb57610100808354040283529160200191610916565b820191906000526020600020905b8154815290600101906020018083116108f957829003601f168201915b50505050509080600301805461092b90611fb6565b80601f016020809104026020016040519081016040528092919081815260200182805461095790611fb6565b80156109a45780601f10610979576101008083540402835291602001916109a4565b820191906000526020600020905b81548152906001019060200180831161098757829003601f168201915b5050505050908060040180546109b990611fb6565b80601f01602080910402602001604051908101604052809291908181526020018280546109e590611fb6565b8015610a325780601f10610a0757610100808354040283529160200191610a32565b820191906000526020600020905b815481529060010190602001808311610a1557829003601f168201915b5050505050905085565b610a5783838360405180602001604052806000815250610dfe565b505050565b60606000610ab5604051806040016040528060048152602001636e616d6560e01b8152506008600001610a8e866112d6565b604051602001610a9f929190612025565b6040516020818303038152906040526000611369565b9050600081610b766040518060400160405280600b81526020016a3232b9b1b934b83a34b7b760a91b81525060086001018054610af190611fb6565b80601f0160208091040260200160405190810160405280929190818152602001828054610b1d90611fb6565b8015610b6a5780601f10610b3f57610100808354040283529160200191610b6a565b820191906000526020600020905b815481529060010190602001808311610b4d57829003601f168201915b50505050506000611369565b610ba8604051806040016040528060068152602001651cde5b589bdb60d21b81525060086002018054610af190611fb6565b610bd960405180604001604052806005815260200164696d61676560d81b81525060086003018054610af190611fb6565b610c976040518060400160405280600d81526020016c185b9a5b585d1a5bdb97dd5c9b609a1b81525060086004018054610c1290611fb6565b80601f0160208091040260200160405190810160405280929190818152602001828054610c3e90611fb6565b8015610c8b5780601f10610c6057610100808354040283529160200191610c8b565b820191906000526020600020905b815481529060010190602001808311610c6e57829003601f168201915b50505050506001611369565b604051602001610cab9594939291906120e2565b60408051601f19818403018152919052949350505050565b600061053a8261116d565b655af3107a40003414610cf45760405163356680b760e01b815260040160405180910390fd5b610d1181600660008154610d0790612183565b91829055506113c5565b60065460408051918252655af3107a400060208301526001600160a01b038316917f4c209b5fc8ad50758f13e2e1088ba56a560dff690a1c6fef26394f4c03821c4f910160405180910390a250565b60006001600160a01b038216610d8c576040516322718ad960e21b81526000600482015260240161064c565b506001600160a01b031660009081526003602052604090205490565b60606001805461054f90611fb6565b61060633838361142a565b6060610dd8826001600160a01b031660146114c9565b604051602001610de8919061219c565b6040516020818303038152906040529050919050565b610e09848484610626565b6106b03385858585611649565b60606006548211158015610e2c57506000600654115b610e6d5760405162461bcd60e51b8152602060048201526012602482015271151bdad95b88191bd95cdb9d08195e1a5cdd60721b604482015260640161064c565b61053a82610a5c565b60405163258c1ef560e01b8152309063258c1ef590610e9b90859085906004016121cf565b602060405180830381865afa158015610eb8573d6000803e3d6000fd5b505050506040513d601f19601f82011682018060405250810190610edc91906121f3565b610f285760405162461bcd60e51b815260206004820152601a60248201527f556e61626c6520746f20766572696679205369676e6174757265000000000000604482015260640161064c565b6001600160a01b03821660009081526007602052604090205415610f875760405162461bcd60e51b8152602060048201526016602482015275119c9959481b5a5b9d08185b1c9958591e481d5cd95960521b604482015260640161064c565b6001600160a01b03821660009081526007602052604081206001905560068054610fb792859291610d0790612183565b60065460408051918252600060208301526001600160a01b038416917f4c209b5fc8ad50758f13e2e1088ba56a560dff690a1c6fef26394f4c03821c4f910160405180910390a25050565b6060600061103d6040518060400160405280600b81526020016a3232b9b1b934b83a34b7b760a91b81525060086001018054610af190611fb6565b61106f604051806040016040528060068152602001651cde5b589bdb60d21b81525060086002018054610af190611fb6565b6110a060405180604001604052806005815260200164696d61676560d81b81525060086003018054610af190611fb6565b6110d96040518060400160405280600d81526020016c185b9a5b585d1a5bdb97dd5c9b609a1b81525060086004018054610c1290611fb6565b6040516020016110ec9493929190612210565b60408051601f1981840301815291905292915050565b6001600160a01b03918216600090815260056020908152604080832093909416825291909152205460ff1690565b60008061113c83610dc2565b60405160200161114c919061228b565b604051602081830303815290604052905061116681611774565b9392505050565b6000818152600260205260408120546001600160a01b03168061053a57604051637e27328960e01b81526004810184905260240161064c565b610a5783838360016117af565b6000828152600260205260408120546001600160a01b03908116908316156111e0576111e08184866118b5565b6001600160a01b0381161561121e576111fd6000856000806117af565b6001600160a01b038116600090815260036020526040902080546000190190555b6001600160a01b0385161561124d576001600160a01b0385166000908152600360205260409020805460010190555b60008481526002602052604080822080546001600160a01b0319166001600160a01b0389811691821790925591518793918516917fddf252ad1be2c89b69c2b068fc378daa952ba7f163c4a11628f55a4df523b3ef91a4949350505050565b6000806000806112bc8686611919565b9250925092506112cc8282611966565b5090949350505050565b606060006112e383611a1f565b600101905060008167ffffffffffffffff81111561130357611303611d5d565b6040519080825280601f01601f19166020018201604052801561132d576020820181803683370190505b5090508181016020015b600019016f181899199a1a9b1b9c1cb0b131b232b360811b600a86061a8153600a850494508461133757509392505050565b6060811561139a5783836040516020016113849291906122a7565b6040516020818303038152906040529050611166565b83836040516020016113ad9291906122fb565b60405160208183030381529060405290509392505050565b6001600160a01b0382166113ef57604051633250574960e11b81526000600482015260240161064c565b60006113fd838360006111b3565b90506001600160a01b03811615610a57576040516339e3563760e11b81526000600482015260240161064c565b6001600160a01b03821661145c57604051630b61174360e31b81526001600160a01b038316600482015260240161064c565b6001600160a01b03838116600081815260056020908152604080832094871680845294825291829020805460ff191686151590811790915591519182527f17307eab39ab6107e8899845ad3d59bd9653f200f220920489ca2b5937696c31910160405180910390a3505050565b60608260006114d9846002612356565b6114e490600261236d565b67ffffffffffffffff8111156114fc576114fc611d5d565b6040519080825280601f01601f191660200182016040528015611526576020820181803683370190505b509050600360fc1b8160008151811061154157611541612380565b60200101906001600160f81b031916908160001a905350600f60fb1b8160018151811061157057611570612380565b60200101906001600160f81b031916908160001a9053506000611594856002612356565b61159f90600161236d565b90505b6001811115611617576f181899199a1a9b1b9c1cb0b131b232b360811b83600f16601081106115d3576115d3612380565b1a60f81b8282815181106115e9576115e9612380565b60200101906001600160f81b031916908160001a90535060049290921c9161161081612396565b90506115a2565b5081156116415760405163e22e27eb60e01b8152600481018690526024810185905260440161064c565b949350505050565b6001600160a01b0383163b1561176d57604051630a85bd0160e11b81526001600160a01b0384169063150b7a029061168b9088908890879087906004016123ad565b6020604051808303816000875af19250505080156116c6575060408051601f3d908101601f191682019092526116c3918101906123ea565b60015b61172f573d8080156116f4576040519150601f19603f3d011682016040523d82523d6000602084013e6116f9565b606091505b50805160000361172757604051633250574960e11b81526001600160a01b038516600482015260240161064c565b805181602001fd5b6001600160e01b03198116630a85bd0160e11b1461176b57604051633250574960e11b81526001600160a01b038516600482015260240161064c565b505b5050505050565b600061178082516112d6565b82604051602001611792929190612407565b604051602081830303815290604052805190602001209050919050565b80806117c357506001600160a01b03821615155b156118855760006117d38461116d565b90506001600160a01b038316158015906117ff5750826001600160a01b0316816001600160a01b031614155b801561181257506118108184611102565b155b1561183b5760405163a9fbf51f60e01b81526001600160a01b038416600482015260240161064c565b81156118835783856001600160a01b0316826001600160a01b03167f8c5be1e5ebec7d5bd14f71427d1e84f3dd0314c0f7b2291e5b200ac8c7c3b92560405160405180910390a45b505b5050600090815260046020526040902080546001600160a01b0319166001600160a01b0392909216919091179055565b6118c0838383611af7565b610a57576001600160a01b0383166118ee57604051637e27328960e01b81526004810182905260240161064c565b60405163177e802f60e01b81526001600160a01b03831660048201526024810182905260440161064c565b600080600083516041036119535760208401516040850151606086015160001a61194588828585611b5a565b95509550955050505061195f565b50508151600091506002905b9250925092565b600082600381111561197a5761197a612462565b03611983575050565b600182600381111561199757611997612462565b036119b55760405163f645eedf60e01b815260040160405180910390fd5b60028260038111156119c9576119c9612462565b036119ea5760405163fce698f760e01b81526004810182905260240161064c565b60038260038111156119fe576119fe612462565b03610606576040516335e2f38360e21b81526004810182905260240161064c565b60008072184f03e93ff9f4daa797ed6e38ed64bf6a1f0160401b8310611a5e5772184f03e93ff9f4daa797ed6e38ed64bf6a1f0160401b830492506040015b6d04ee2d6d415b85acef81000000008310611a8a576d04ee2d6d415b85acef8100000000830492506020015b662386f26fc100008310611aa857662386f26fc10000830492506010015b6305f5e1008310611ac0576305f5e100830492506008015b6127108310611ad457612710830492506004015b60648310611ae6576064830492506002015b600a831061053a5760010192915050565b60006001600160a01b038316158015906116415750826001600160a01b0316846001600160a01b03161480611b315750611b318484611102565b806116415750506000908152600460205260409020546001600160a01b03908116911614919050565b600080807f7fffffffffffffffffffffffffffffff5d576e7357a4501ddfe92f46681b20a0841115611b955750600091506003905082611c1f565b604080516000808252602082018084528a905260ff891692820192909252606081018790526080810186905260019060a0016020604051602081039080840390855afa158015611be9573d6000803e3d6000fd5b5050604051601f1901519150506001600160a01b038116611c1557506000925060019150829050611c1f565b9250600091508190505b9450945094915050565b6001600160e01b031981168114611c3f57600080fd5b50565b600060208284031215611c5457600080fd5b813561116681611c29565b60005b83811015611c7a578181015183820152602001611c62565b50506000910152565b60008151808452611c9b816020860160208601611c5f565b601f01601f19169290920160200192915050565b6020815260006111666020830184611c83565b600060208284031215611cd457600080fd5b5035919050565b80356001600160a01b0381168114611cf257600080fd5b919050565b60008060408385031215611d0a57600080fd5b611d1383611cdb565b946020939093013593505050565b600080600060608486031215611d3657600080fd5b611d3f84611cdb565b9250611d4d60208501611cdb565b9150604084013590509250925092565b634e487b7160e01b600052604160045260246000fd5b600082601f830112611d8457600080fd5b813567ffffffffffffffff80821115611d9f57611d9f611d5d565b604051601f8301601f19908116603f01168101908282118183101715611dc757611dc7611d5d565b81604052838152866020858801011115611de057600080fd5b836020870160208301376000602085830101528094505050505092915050565b60008060408385031215611e1357600080fd5b611e1c83611cdb565b9150602083013567ffffffffffffffff811115611e3857600080fd5b611e4485828601611d73565b9150509250929050565b60a081526000611e6160a0830188611c83565b8281036020840152611e738188611c83565b90508281036040840152611e878187611c83565b90508281036060840152611e9b8186611c83565b90508281036080840152611eaf8185611c83565b98975050505050505050565b600060208284031215611ecd57600080fd5b61116682611cdb565b8015158114611c3f57600080fd5b60008060408385031215611ef757600080fd5b611f0083611cdb565b91506020830135611f1081611ed6565b809150509250929050565b60008060008060808587031215611f3157600080fd5b611f3a85611cdb565b9350611f4860208601611cdb565b925060408501359150606085013567ffffffffffffffff811115611f6b57600080fd5b611f7787828801611d73565b91505092959194509250565b60008060408385031215611f9657600080fd5b611f9f83611cdb565b9150611fad60208401611cdb565b90509250929050565b600181811c90821680611fca57607f821691505b602082108103611fea57634e487b7160e01b600052602260045260246000fd5b50919050565b60006020828403121561200257600080fd5b5051919050565b6000815161201b818560208601611c5f565b9290920192915050565b60008084548160018260011c9150600183168061204357607f831692505b6020808410820361206257634e487b7160e01b86526022600452602486fd5b818015612076576001811461208b576120b8565b60ff19861689528415158502890196506120b8565b60008b81526020902060005b868110156120b05781548b820152908501908301612097565b505084890196505b5050505050506120d96120d38261202360f01b815260020190565b85612009565b95945050505050565b607b60f81b81526000600187516120ff8183860160208c01611c5f565b8751908401906121158184840160208c01611c5f565b875191019061212a8184840160208b01611c5f565b865191019061213f8184840160208a01611c5f565b85519101906121548184840160208901611c5f565b607d60f81b910191820152600201979650505050505050565b634e487b7160e01b600052601160045260246000fd5b6000600182016121955761219561216d565b5060010190565b6a0233932b29026b4b73a1d160ad1b8152600082516121c281600b850160208701611c5f565b91909101600b0192915050565b6001600160a01b038316815260406020820181905260009061164190830184611c83565b60006020828403121561220557600080fd5b815161116681611ed6565b607b60f81b81526000855161222c816001850160208a01611c5f565b855190830190612243816001840160208a01611c5f565b8551910190612259816001840160208901611c5f565b845191019061226f816001840160208801611c5f565b607d60f81b600192909101918201526002019695505050505050565b6000825161229d818460208701611c5f565b9190910192915050565b6000601160f91b80835284516122c4816001860160208901611c5f565b62111d1160e91b60019185019182015284516122e7816004840160208901611c5f565b016004810191909152600501949350505050565b601160f91b81528251600090612318816001850160208801611c5f565b62111d1160e91b600191840191820152835161233b816004840160208801611c5f565b61088b60f21b60049290910191820152600601949350505050565b808202811582820484141761053a5761053a61216d565b8082018082111561053a5761053a61216d565b634e487b7160e01b600052603260045260246000fd5b6000816123a5576123a561216d565b506000190190565b6001600160a01b03858116825284166020820152604081018390526080606082018190526000906123e090830184611c83565b9695505050505050565b6000602082840312156123fc57600080fd5b815161116681611c29565b7f19457468657265756d205369676e6564204d6573736167653a0a00000000000081526000835161243f81601a850160208801611c5f565b83519083019061245681601a840160208801611c5f565b01601a01949350505050565b634e487b7160e01b600052602160045260246000fdfe697066733a2f2f516d51527a77354d744e5163646a6739725a384d597567417a36576a6142647673754e53684b544c594e4a646a372f636f666665655f646f672e706e67a264697066735822122049a408609f93fed81fc04fa96284a3bd79cb17c1ed70e5edc0170c67d128ad6a64736f6c63430008170033697066733a2f2f516d51527a77354d744e5163646a6739725a384d597567417a36576a6142647673754e53684b544c594e4a646a372f636f666665655f646f672e706e67","linkReferences":{}},"methodIdentifiers":{"approve(address,uint256)":"095ea7b3","balanceOf(address)":"70a08231","contractURI()":"e8a3d485","currentId()":"e00dd161","freeMint(address,bytes)":"cfbb3cc4","freeMintSigner()":"b94a2102","getApproved(uint256)":"081812fc","getBytesToSign(address)":"fe9635cc","getOpenEditionUri(uint256)":"54a76f4a","getStringToSign(address)":"b5317785","imageUri()":"0bf82da4","isApprovedForAll(address,address)":"e985e9c5","metadata()":"392f37e9","mint(address)":"6a627842","name()":"06fdde03","ownerOf(uint256)":"6352211e","paidMintCost()":"57a4289b","safeTransferFrom(address,address,uint256)":"42842e0e","safeTransferFrom(address,address,uint256,bytes)":"b88d4fde","setApprovalForAll(address,bool)":"a22cb465","supportsInterface(bytes4)":"01ffc9a7","symbol()":"95d89b41","tokenURI(uint256)":"c87b56dd","transferFrom(address,address,uint256)":"23b872dd","usedFreeMints(address)":"6d9495bd","verifySignature(address,bytes)":"258c1ef5"},"id":66}