{"abi":[{"type":"constructor","inputs":[],"stateMutability":"nonpayable"},{"type":"receive","stateMutability":"payable"},{"type":"function","name":"buyCoffee","inputs":[{"name":"numCoffees","type":"uint256","internalType":"uint256"},{"name":"userName","type":"string","internalType":"string"},{"name":"twitterHandle","type":"string","internalType":"string"},{"name":"message","type":"string","internalType":"string"}],"outputs":[],"stateMutability":"payable"},{"type":"function","name":"getMemos","inputs":[],"outputs":[{"name":"","type":"tuple[]","internalType":"struct Memo[]","components":[{"name":"numCoffees","type":"uint256","internalType":"uint256"},{"name":"userName","type":"string","internalType":"string"},{"name":"twitterHandle","type":"string","internalType":"string"},{"name":"message","type":"string","internalType":"string"},{"name":"time","type":"uint256","internalType":"uint256"},{"name":"userAddress","type":"address","internalType":"address"}]}],"stateMutability":"view"},{"type":"function","name":"memos","inputs":[{"name":"","type":"uint256","internalType":"uint256"}],"outputs":[{"name":"numCoffees","type":"uint256","internalType":"uint256"},{"name":"userName","type":"string","internalType":"string"},{"name":"twitterHandle","type":"string","internalType":"string"},{"name":"message","type":"string","internalType":"string"},{"name":"time","type":"uint256","internalType":"uint256"},{"name":"userAddress","type":"address","internalType":"address"}],"stateMutability":"view"},{"type":"function","name":"modifyMemoMessage","inputs":[{"name":"index","type":"uint256","internalType":"uint256"},{"name":"message","type":"string","internalType":"string"}],"outputs":[],"stateMutability":"nonpayable"},{"type":"function","name":"owner","inputs":[],"outputs":[{"name":"","type":"address","internalType":"address payable"}],"stateMutability":"view"},{"type":"function","name":"price","inputs":[],"outputs":[{"name":"","type":"uint256","internalType":"uint256"}],"stateMutability":"view"},{"type":"function","name":"removeMemo","inputs":[{"name":"index","type":"uint256","internalType":"uint256"}],"outputs":[],"stateMutability":"nonpayable"},{"type":"function","name":"withdrawTips","inputs":[],"outputs":[],"stateMutability":"nonpayable"},{"type":"event","name":"BuyMeACoffeeEvent","inputs":[{"name":"buyer","type":"address","indexed":true,"internalType":"address"},{"name":"price","type":"uint256","indexed":false,"internalType":"uint256"}],"anonymous":false},{"type":"event","name":"NewMemo","inputs":[{"name":"userAddress","type":"address","indexed":true,"internalType":"address"},{"name":"time","type":"uint256","indexed":false,"internalType":"uint256"},{"name":"numCoffees","type":"uint256","indexed":false,"internalType":"uint256"},{"name":"userName","type":"string","indexed":false,"internalType":"string"},{"name":"twitterHandle","type":"string","indexed":false,"internalType":"string"},{"name":"message","type":"string","indexed":false,"internalType":"string"}],"anonymous":false},{"type":"error","name":"InsufficientFunds","inputs":[]},{"type":"error","name":"InvalidArguments","inputs":[{"name":"message","type":"string","internalType":"string"}]},{"type":"error","name":"OnlyOwner","inputs":[]}],"bytecode":{"object":"0x608060405234801561001057600080fd5b50600080546001600160a01b03191633179055655af3107a40006001556119bb8061003c6000396000f3fe60806040526004361061007f5760003560e01c8063865c51721161004e578063865c5172146100f55780638da5cb5b14610120578063a035b1fe14610158578063e8dfdf041461017c57600080fd5b8063304f2e211461008b5780633aaa74b2146100ad578063406b2b46146100c25780635456d394146100e257600080fd5b3661008657005b600080fd5b34801561009757600080fd5b506100ab6100a6366004611322565b6101ae565b005b3480156100b957600080fd5b506100ab61085c565b3480156100ce57600080fd5b506100ab6100dd366004611351565b610945565b6100ab6100f0366004611455565b610c37565b34801561010157600080fd5b5061010a610ea8565b604051610117919061153f565b60405180910390f35b34801561012c57600080fd5b50600054610140906001600160a01b031681565b6040516001600160a01b039091168152602001610117565b34801561016457600080fd5b5061016e60015481565b604051908152602001610117565b34801561018857600080fd5b5061019c610197366004611322565b6110ea565b6040516101179695949392919061160a565b60025481106101f557604051630aec738560e11b815260206004820152600d60248201526c092dcecc2d8d2c840d2dcc8caf609b1b60448201526064015b60405180910390fd5b60006002828154811061020a5761020a61166d565b90600052602060002090600602016040518060c00160405290816000820154815260200160018201805461023d90611683565b80601f016020809104026020016040519081016040528092919081815260200182805461026990611683565b80156102b65780601f1061028b576101008083540402835291602001916102b6565b820191906000526020600020905b81548152906001019060200180831161029957829003601f168201915b505050505081526020016002820180546102cf90611683565b80601f01602080910402602001604051908101604052809291908181526020018280546102fb90611683565b80156103485780601f1061031d57610100808354040283529160200191610348565b820191906000526020600020905b81548152906001019060200180831161032b57829003601f168201915b5050505050815260200160038201805461036190611683565b80601f016020809104026020016040519081016040528092919081815260200182805461038d90611683565b80156103da5780601f106103af576101008083540402835291602001916103da565b820191906000526020600020905b8154815290600101906020018083116103bd57829003601f168201915b5050509183525050600482015460208201526005909101546001600160a01b0390811660409092019190915260a0820151919250163314158061042857506000546001600160a01b03163314155b1561046e57604051630aec738560e11b815260206004820152601560248201527413dc195c985d1a5bdb881b9bdd08185b1b1bddd959605a1b60448201526064016101ec565b6000600283815481106104835761048361166d565b90600052602060002090600602016040518060c0016040529081600082015481526020016001820180546104b690611683565b80601f01602080910402602001604051908101604052809291908181526020018280546104e290611683565b801561052f5780601f106105045761010080835404028352916020019161052f565b820191906000526020600020905b81548152906001019060200180831161051257829003601f168201915b5050505050815260200160028201805461054890611683565b80601f016020809104026020016040519081016040528092919081815260200182805461057490611683565b80156105c15780601f10610596576101008083540402835291602001916105c1565b820191906000526020600020905b8154815290600101906020018083116105a457829003601f168201915b505050505081526020016003820180546105da90611683565b80601f016020809104026020016040519081016040528092919081815260200182805461060690611683565b80156106535780601f1061062857610100808354040283529160200191610653565b820191906000526020600020905b81548152906001019060200180831161063657829003601f168201915b5050509183525050600482015460208201526005909101546001600160a01b0316604090910152600280549192509061068e906001906116d3565b8154811061069e5761069e61166d565b9060005260206000209060060201600284815481106106bf576106bf61166d565b6000918252602090912082546006909202019081556001808201906106e69084018261173d565b506002818101906106f99084018261173d565b5060038181019061070c9084018261173d565b5060048281015490820155600591820154910180546001600160a01b0319166001600160a01b039092169190911790556002805482919061074f906001906116d3565b8154811061075f5761075f61166d565b906000526020600020906006020160008201518160000155602082015181600101908161078c919061181e565b50604082015160028201906107a1908261181e565b50606082015160038201906107b6908261181e565b506080820151600482015560a090910151600590910180546001600160a01b0319166001600160a01b0390921691909117905560028054806107fa576107fa6118d8565b6000828152602081206006600019909301928302018181559061082060018301826112d4565b61082e6002830160006112d4565b61083c6003830160006112d4565b506000600482015560050180546001600160a01b03191690559055505050565b6000546001600160a01b0316331461088757604051635fc483c560e01b815260040160405180910390fd5b476000036108a85760405163356680b760e01b815260040160405180910390fd5b600080546040516001600160a01b039091169047908381818185875af1925050503d80600081146108f5576040519150601f19603f3d011682016040523d82523d6000602084013e6108fa565b606091505b50509050806109425760405162461bcd60e51b81526020600482015260146024820152732330b4b632b2103a379039b2b7321022ba3432b960611b60448201526064016101ec565b50565b600254821061098757604051630aec738560e11b815260206004820152600d60248201526c092dcecc2d8d2c840d2dcc8caf609b1b60448201526064016101ec565b60006002838154811061099c5761099c61166d565b90600052602060002090600602016040518060c0016040529081600082015481526020016001820180546109cf90611683565b80601f01602080910402602001604051908101604052809291908181526020018280546109fb90611683565b8015610a485780601f10610a1d57610100808354040283529160200191610a48565b820191906000526020600020905b815481529060010190602001808311610a2b57829003601f168201915b50505050508152602001600282018054610a6190611683565b80601f0160208091040260200160405190810160405280929190818152602001828054610a8d90611683565b8015610ada5780601f10610aaf57610100808354040283529160200191610ada565b820191906000526020600020905b815481529060010190602001808311610abd57829003601f168201915b50505050508152602001600382018054610af390611683565b80601f0160208091040260200160405190810160405280929190818152602001828054610b1f90611683565b8015610b6c5780601f10610b4157610100808354040283529160200191610b6c565b820191906000526020600020905b815481529060010190602001808311610b4f57829003601f168201915b5050509183525050600482015460208201526005909101546001600160a01b0390811660409092019190915260a08201519192501633141580610bba57506000546001600160a01b03163314155b15610c0057604051630aec738560e11b815260206004820152601560248201527413dc195c985d1a5bdb881b9bdd08185b1b1bddd959605a1b60448201526064016101ec565b8160028481548110610c1457610c1461166d565b90600052602060002090600602016003019081610c31919061181e565b50505050565b86600154610c4591906118ee565b341015610c655760405163356680b760e01b815260040160405180910390fd5b60405134815233907f6c786e8cbaf5f056129cce184bf072f2a16cb9af797b5d5dc57f280897eddaa19060200160405180910390a284158015610ca6575080155b15610cf457604051630aec738560e11b815260206004820152601b60248201527f496e76616c696420757365724e616d65206f72206d657373616765000000000060448201526064016101ec565b60026040518060c0016040528089815260200188888080601f016020809104026020016040519081016040528093929190818152602001838380828437600092019190915250505090825250604080516020601f890181900481028201810190925287815291810191908890889081908401838280828437600092019190915250505090825250604080516020601f87018190048102820181019092528581529181019190869086908190840183828082843760009201829052509385525050426020808501919091523360409094019390935250835460018181018655948252908290208351600690920201908155908201519192909190820190610dfa908261181e565b5060408201516002820190610e0f908261181e565b5060608201516003820190610e24908261181e565b506080820151600482015560a090910151600590910180546001600160a01b0319166001600160a01b0390921691909117905560405133907f4c312a9c4e169a294b601cb57ba02fe2fa8a84c417a019692e201db957ec644f90610e979042908b908b908b908b908b908b908b9061192e565b60405180910390a250505050505050565b60606002805480602002602001604051908101604052809291908181526020016000905b828210156110e157838290600052602060002090600602016040518060c001604052908160008201548152602001600182018054610f0990611683565b80601f0160208091040260200160405190810160405280929190818152602001828054610f3590611683565b8015610f825780601f10610f5757610100808354040283529160200191610f82565b820191906000526020600020905b815481529060010190602001808311610f6557829003601f168201915b50505050508152602001600282018054610f9b90611683565b80601f0160208091040260200160405190810160405280929190818152602001828054610fc790611683565b80156110145780601f10610fe957610100808354040283529160200191611014565b820191906000526020600020905b815481529060010190602001808311610ff757829003601f168201915b5050505050815260200160038201805461102d90611683565b80601f016020809104026020016040519081016040528092919081815260200182805461105990611683565b80156110a65780601f1061107b576101008083540402835291602001916110a6565b820191906000526020600020905b81548152906001019060200180831161108957829003601f168201915b505050918352505060048201546020808301919091526005909201546001600160a01b03166040909101529082526001929092019101610ecc565b50505050905090565b600281815481106110fa57600080fd5b6000918252602090912060069091020180546001820180549193509061111f90611683565b80601f016020809104026020016040519081016040528092919081815260200182805461114b90611683565b80156111985780601f1061116d57610100808354040283529160200191611198565b820191906000526020600020905b81548152906001019060200180831161117b57829003601f168201915b5050505050908060020180546111ad90611683565b80601f01602080910402602001604051908101604052809291908181526020018280546111d990611683565b80156112265780601f106111fb57610100808354040283529160200191611226565b820191906000526020600020905b81548152906001019060200180831161120957829003601f168201915b50505050509080600301805461123b90611683565b80601f016020809104026020016040519081016040528092919081815260200182805461126790611683565b80156112b45780601f10611289576101008083540402835291602001916112b4565b820191906000526020600020905b81548152906001019060200180831161129757829003601f168201915b5050505060048301546005909301549192916001600160a01b0316905086565b5080546112e090611683565b6000825580601f106112f0575050565b601f01602090049060005260206000209081019061094291905b8082111561131e576000815560010161130a565b5090565b60006020828403121561133457600080fd5b5035919050565b634e487b7160e01b600052604160045260246000fd5b6000806040838503121561136457600080fd5b82359150602083013567ffffffffffffffff8082111561138357600080fd5b818501915085601f83011261139757600080fd5b8135818111156113a9576113a961133b565b604051601f8201601f19908116603f011681019083821181831017156113d1576113d161133b565b816040528281528860208487010111156113ea57600080fd5b8260208601602083013760006020848301015280955050505050509250929050565b60008083601f84011261141e57600080fd5b50813567ffffffffffffffff81111561143657600080fd5b60208301915083602082850101111561144e57600080fd5b9250929050565b60008060008060008060006080888a03121561147057600080fd5b87359650602088013567ffffffffffffffff8082111561148f57600080fd5b61149b8b838c0161140c565b909850965060408a01359150808211156114b457600080fd5b6114c08b838c0161140c565b909650945060608a01359150808211156114d957600080fd5b506114e68a828b0161140c565b989b979a50959850939692959293505050565b6000815180845260005b8181101561151f57602081850181015186830182015201611503565b506000602082860101526020601f19601f83011685010191505092915050565b600060208083018184528085518083526040925060408601915060408160051b87010184880160005b838110156115fc57603f19898403018552815160c08151855288820151818a870152611596828701826114f9565b91505087820151858203898701526115ae82826114f9565b915050606080830151868303828801526115c883826114f9565b6080858101519089015260a0948501516001600160a01b031694909701939093525050509386019390860190600101611568565b509098975050505050505050565b86815260c06020820152600061162360c08301886114f9565b828103604084015261163581886114f9565b9050828103606084015261164981876114f9565b608084019590955250506001600160a01b039190911660a090910152949350505050565b634e487b7160e01b600052603260045260246000fd5b600181811c9082168061169757607f821691505b6020821081036116b757634e487b7160e01b600052602260045260246000fd5b50919050565b634e487b7160e01b600052601160045260246000fd5b818103818111156116e6576116e66116bd565b92915050565b601f821115611738576000816000526020600020601f850160051c810160208610156117155750805b601f850160051c820191505b8181101561173457828155600101611721565b5050505b505050565b818103611748575050565b6117528254611683565b67ffffffffffffffff81111561176a5761176a61133b565b61177e816117788454611683565b846116ec565b6000601f8211600181146117b2576000831561179a5750848201545b600019600385901b1c1916600184901b178455611817565b600085815260209020601f19841690600086815260209020845b838110156117ec57828601548255600195860195909101906020016117cc565b508583101561180a5781850154600019600388901b60f8161c191681555b50505060018360011b0184555b5050505050565b815167ffffffffffffffff8111156118385761183861133b565b611846816117788454611683565b602080601f83116001811461187b57600084156118635750858301515b600019600386901b1c1916600185901b178555611734565b600085815260208120601f198616915b828110156118aa5788860151825594840194600190910190840161188b565b50858210156118c85787850151600019600388901b60f8161c191681555b5050505050600190811b01905550565b634e487b7160e01b600052603160045260246000fd5b80820281158282048414176116e6576116e66116bd565b81835281816020850137506000828201602090810191909152601f909101601f19169091010190565b88815287602082015260a06040820152600061194e60a08301888a611905565b8281036060840152611961818789611905565b90508281036080840152611976818587611905565b9b9a505050505050505050505056fea26469706673582212201798a6e981f4d5777a175deb2775b9d42da870039ccd6f91d917a6a425c3a4d764736f6c63430008170033","linkReferences":{}},"methodIdentifiers":{"buyCoffee(uint256,string,string,string)":"5456d394","getMemos()":"865c5172","memos(uint256)":"e8dfdf04","modifyMemoMessage(uint256,string)":"406b2b46","owner()":"8da5cb5b","price()":"a035b1fe","removeMemo(uint256)":"304f2e21","withdrawTips()":"3aaa74b2"},"id":62}