{"abi":[{"type":"constructor","inputs":[],"stateMutability":"nonpayable"},{"type":"function","name":"buyCoffee","inputs":[{"name":"userName","type":"string","internalType":"string"},{"name":"message","type":"string","internalType":"string"}],"outputs":[],"stateMutability":"payable"},{"type":"function","name":"memos","inputs":[{"name":"","type":"uint256","internalType":"uint256"}],"outputs":[{"name":"userName","type":"string","internalType":"string"},{"name":"message","type":"string","internalType":"string"},{"name":"time","type":"uint256","internalType":"uint256"},{"name":"userAddress","type":"address","internalType":"address"}],"stateMutability":"view"},{"type":"function","name":"owner","inputs":[],"outputs":[{"name":"","type":"address","internalType":"address payable"}],"stateMutability":"view"},{"type":"function","name":"price","inputs":[],"outputs":[{"name":"","type":"uint256","internalType":"uint256"}],"stateMutability":"view"},{"type":"event","name":"BuyMeACoffeeEvent","inputs":[{"name":"buyer","type":"address","indexed":true,"internalType":"address"},{"name":"price","type":"uint256","indexed":false,"internalType":"uint256"}],"anonymous":false},{"type":"event","name":"NewMemo","inputs":[{"name":"userAddress","type":"address","indexed":true,"internalType":"address"},{"name":"time","type":"uint256","indexed":false,"internalType":"uint256"},{"name":"userName","type":"string","indexed":false,"internalType":"string"},{"name":"message","type":"string","indexed":false,"internalType":"string"}],"anonymous":false},{"type":"error","name":"InsufficientFunds","inputs":[]},{"type":"error","name":"InvalidArguments","inputs":[{"name":"message","type":"string","internalType":"string"}]}],"bytecode":{"object":"0x608060405234801561001057600080fd5b50600080546001600160a01b03191633179055655af3107a40006001556109688061003c6000396000f3fe60806040526004361061003f5760003560e01c8063204206e1146100445780638da5cb5b14610059578063a035b1fe14610096578063e8dfdf04146100ba575b600080fd5b6100576100523660046105f4565b6100ea565b005b34801561006557600080fd5b50600054610079906001600160a01b031681565b6040516001600160a01b0390911681526020015b60405180910390f35b3480156100a257600080fd5b506100ac60015481565b60405190815260200161008d565b3480156100c657600080fd5b506100da6100d5366004610660565b61039d565b60405161008d94939291906106bf565b60015434101561010d5760405163356680b760e01b815260040160405180910390fd5b60405134815233907f6c786e8cbaf5f056129cce184bf072f2a16cb9af797b5d5dc57f280897eddaa19060200160405180910390a2610163604051806060016040528060218152602001610912602191396104f7565b8215801561016f575080155b156101c157604051630aec738560e11b815260206004820152601b60248201527f496e76616c696420757365724e616d65206f72206d6573736167650000000000604482015260640160405180910390fd5b6102296040518060400160405280601081526020016f26b2b6b79021b932b0ba32b210213c9d60811b81525085858080601f01602080910402602001604051908101604052809392919081815260200183838082843760009201919091525061053d92505050565b6040805160a06020601f87018190040282018101909252608081018581526002928291908890889081908501838280828437600092019190915250505090825250604080516020601f8701819004810282018101909252858152918101919086908690819084018382808284376000920182905250938552505042602080850191909152336040909401939093525083546001810185559381522081519192600402019081906102d990826107a7565b50602082015160018201906102ee90826107a7565b506040828101516002830155606090920151600390910180546001600160a01b0319166001600160a01b039092169190911790555133907fc56140e05f516509ae28110e0f72e17558a7561630dad2647c3ae87d986e365c9061035a9042908890889088908890610890565b60405180910390a26103976040518060400160405280601481526020017313995dc813595b5bc81dd85cc8195b5a5d1d195960621b8152506104f7565b50505050565b600281815481106103ad57600080fd5b90600052602060002090600402016000915090508060000180546103d09061071c565b80601f01602080910402602001604051908101604052809291908181526020018280546103fc9061071c565b80156104495780601f1061041e57610100808354040283529160200191610449565b820191906000526020600020905b81548152906001019060200180831161042c57829003601f168201915b50505050509080600101805461045e9061071c565b80601f016020809104026020016040519081016040528092919081815260200182805461048a9061071c565b80156104d75780601f106104ac576101008083540402835291602001916104d7565b820191906000526020600020905b8154815290600101906020018083116104ba57829003601f168201915b5050505060028301546003909301549192916001600160a01b0316905084565b61053a8160405160240161050b91906108c9565b60408051601f198184030181529190526020810180516001600160e01b031663104c13eb60e21b179052610586565b50565b61058282826040516024016105539291906108e3565b60408051601f198184030181529190526020810180516001600160e01b0316634b5c427760e01b179052610586565b5050565b61053a8180516a636f6e736f6c652e6c6f67602083016000808483855afa5050505050565b60008083601f8401126105bd57600080fd5b50813567ffffffffffffffff8111156105d557600080fd5b6020830191508360208285010111156105ed57600080fd5b9250929050565b6000806000806040858703121561060a57600080fd5b843567ffffffffffffffff8082111561062257600080fd5b61062e888389016105ab565b9096509450602087013591508082111561064757600080fd5b50610654878288016105ab565b95989497509550505050565b60006020828403121561067257600080fd5b5035919050565b6000815180845260005b8181101561069f57602081850181015186830182015201610683565b506000602082860101526020601f19601f83011685010191505092915050565b6080815260006106d26080830187610679565b82810360208401526106e48187610679565b604084019590955250506001600160a01b039190911660609091015292915050565b634e487b7160e01b600052604160045260246000fd5b600181811c9082168061073057607f821691505b60208210810361075057634e487b7160e01b600052602260045260246000fd5b50919050565b601f8211156107a2576000816000526020600020601f850160051c8101602086101561077f5750805b601f850160051c820191505b8181101561079e5782815560010161078b565b5050505b505050565b815167ffffffffffffffff8111156107c1576107c1610706565b6107d5816107cf845461071c565b84610756565b602080601f83116001811461080a57600084156107f25750858301515b600019600386901b1c1916600185901b17855561079e565b600085815260208120601f198616915b828110156108395788860151825594840194600190910190840161081a565b50858210156108575787850151600019600388901b60f8161c191681555b5050505050600190811b01905550565b81835281816020850137506000828201602090810191909152601f909101601f19169091010190565b8581526060602082015260006108aa606083018688610867565b82810360408401526108bd818587610867565b98975050505050505050565b6020815260006108dc6020830184610679565b9392505050565b6040815260006108f66040830185610679565b82810360208401526109088185610679565b9594505050505056fe427579206d65206120636f66666565206576656e742077617320656d6974746564a2646970667358221220bbcccaf636d936eb6d21a2dfba9d1885fa73fa889cd30f2a823faa675e49765864736f6c63430008170033","linkReferences":{}},"methodIdentifiers":{"buyCoffee(string,string)":"204206e1","memos(uint256)":"e8dfdf04","owner()":"8da5cb5b","price()":"a035b1fe"},"id":64}