{"abi":[{"type":"constructor","inputs":[{"name":"_name","type":"string","internalType":"string"},{"name":"_ticker","type":"string","internalType":"string"},{"name":"_allowlistRoot","type":"bytes32","internalType":"bytes32"},{"name":"_maxSupply","type":"uint256","internalType":"uint256"},{"name":"_price","type":"uint120","internalType":"uint120"},{"name":"_allowlistPrice","type":"uint120","internalType":"uint120"},{"name":"_allowlistOpen","type":"uint64","internalType":"uint64"},{"name":"_allowlistClose","type":"uint64","internalType":"uint64"},{"name":"_maxAllowlistMint","type":"uint64","internalType":"uint64"},{"name":"_maxPublicMint","type":"uint64","internalType":"uint64"},{"name":"_uri","type":"string","internalType":"string"}],"stateMutability":"nonpayable"},{"type":"function","name":"MAX_SUPPLY","inputs":[],"outputs":[{"name":"","type":"uint256","internalType":"uint256"}],"stateMutability":"view"},{"type":"function","name":"acceptOwnership","inputs":[],"outputs":[],"stateMutability":"nonpayable"},{"type":"function","name":"allowlistClose","inputs":[],"outputs":[{"name":"","type":"uint64","internalType":"uint64"}],"stateMutability":"view"},{"type":"function","name":"allowlistMint","inputs":[{"name":"_proof","type":"bytes32[]","internalType":"bytes32[]"},{"name":"_amount","type":"uint256","internalType":"uint256"}],"outputs":[],"stateMutability":"payable"},{"type":"function","name":"allowlistOpen","inputs":[],"outputs":[{"name":"","type":"uint64","internalType":"uint64"}],"stateMutability":"view"},{"type":"function","name":"allowlistPrice","inputs":[],"outputs":[{"name":"","type":"uint120","internalType":"uint120"}],"stateMutability":"view"},{"type":"function","name":"allowlistRoot","inputs":[],"outputs":[{"name":"","type":"bytes32","internalType":"bytes32"}],"stateMutability":"view"},{"type":"function","name":"approve","inputs":[{"name":"to","type":"address","internalType":"address"},{"name":"tokenId","type":"uint256","internalType":"uint256"}],"outputs":[],"stateMutability":"payable"},{"type":"function","name":"balanceOf","inputs":[{"name":"owner","type":"address","internalType":"address"}],"outputs":[{"name":"","type":"uint256","internalType":"uint256"}],"stateMutability":"view"},{"type":"function","name":"getApproved","inputs":[{"name":"tokenId","type":"uint256","internalType":"uint256"}],"outputs":[{"name":"","type":"address","internalType":"address"}],"stateMutability":"view"},{"type":"function","name":"isApprovedForAll","inputs":[{"name":"owner","type":"address","internalType":"address"},{"name":"operator","type":"address","internalType":"address"}],"outputs":[{"name":"","type":"bool","internalType":"bool"}],"stateMutability":"view"},{"type":"function","name":"live","inputs":[],"outputs":[{"name":"","type":"bool","internalType":"bool"}],"stateMutability":"view"},{"type":"function","name":"maxAllowlistMint","inputs":[],"outputs":[{"name":"","type":"uint64","internalType":"uint64"}],"stateMutability":"view"},{"type":"function","name":"maxPublicMint","inputs":[],"outputs":[{"name":"","type":"uint64","internalType":"uint64"}],"stateMutability":"view"},{"type":"function","name":"name","inputs":[],"outputs":[{"name":"","type":"string","internalType":"string"}],"stateMutability":"view"},{"type":"function","name":"owner","inputs":[],"outputs":[{"name":"","type":"address","internalType":"address"}],"stateMutability":"view"},{"type":"function","name":"ownerOf","inputs":[{"name":"tokenId","type":"uint256","internalType":"uint256"}],"outputs":[{"name":"","type":"address","internalType":"address"}],"stateMutability":"view"},{"type":"function","name":"pendingOwner","inputs":[],"outputs":[{"name":"","type":"address","internalType":"address"}],"stateMutability":"view"},{"type":"function","name":"price","inputs":[],"outputs":[{"name":"","type":"uint120","internalType":"uint120"}],"stateMutability":"view"},{"type":"function","name":"publicMint","inputs":[{"name":"_amount","type":"uint256","internalType":"uint256"}],"outputs":[],"stateMutability":"payable"},{"type":"function","name":"renounceOwnership","inputs":[],"outputs":[],"stateMutability":"nonpayable"},{"type":"function","name":"safeTransferFrom","inputs":[{"name":"from","type":"address","internalType":"address"},{"name":"to","type":"address","internalType":"address"},{"name":"tokenId","type":"uint256","internalType":"uint256"}],"outputs":[],"stateMutability":"payable"},{"type":"function","name":"safeTransferFrom","inputs":[{"name":"from","type":"address","internalType":"address"},{"name":"to","type":"address","internalType":"address"},{"name":"tokenId","type":"uint256","internalType":"uint256"},{"name":"_data","type":"bytes","internalType":"bytes"}],"outputs":[],"stateMutability":"payable"},{"type":"function","name":"setAllowlistMintWindow","inputs":[{"name":"_allowlistOpen","type":"uint64","internalType":"uint64"},{"name":"_allowlistClose","type":"uint64","internalType":"uint64"}],"outputs":[],"stateMutability":"nonpayable"},{"type":"function","name":"setAllowlistRoot","inputs":[{"name":"_allowlistRoot","type":"bytes32","internalType":"bytes32"}],"outputs":[],"stateMutability":"nonpayable"},{"type":"function","name":"setApprovalForAll","inputs":[{"name":"operator","type":"address","internalType":"address"},{"name":"approved","type":"bool","internalType":"bool"}],"outputs":[],"stateMutability":"nonpayable"},{"type":"function","name":"setBaseUri","inputs":[{"name":"_uri","type":"string","internalType":"string"}],"outputs":[],"stateMutability":"nonpayable"},{"type":"function","name":"setMaxMints","inputs":[{"name":"_maxAllowlistMint","type":"uint64","internalType":"uint64"},{"name":"_maxPublcMint","type":"uint64","internalType":"uint64"}],"outputs":[],"stateMutability":"nonpayable"},{"type":"function","name":"setPrices","inputs":[{"name":"_price","type":"uint120","internalType":"uint120"},{"name":"_allowlistPrice","type":"uint120","internalType":"uint120"}],"outputs":[],"stateMutability":"nonpayable"},{"type":"function","name":"supportsInterface","inputs":[{"name":"interfaceId","type":"bytes4","internalType":"bytes4"}],"outputs":[{"name":"","type":"bool","internalType":"bool"}],"stateMutability":"view"},{"type":"function","name":"symbol","inputs":[],"outputs":[{"name":"","type":"string","internalType":"string"}],"stateMutability":"view"},{"type":"function","name":"toggleLive","inputs":[],"outputs":[],"stateMutability":"nonpayable"},{"type":"function","name":"tokenURI","inputs":[{"name":"tokenId","type":"uint256","internalType":"uint256"}],"outputs":[{"name":"","type":"string","internalType":"string"}],"stateMutability":"view"},{"type":"function","name":"totalSupply","inputs":[],"outputs":[{"name":"","type":"uint256","internalType":"uint256"}],"stateMutability":"view"},{"type":"function","name":"transferFrom","inputs":[{"name":"from","type":"address","internalType":"address"},{"name":"to","type":"address","internalType":"address"},{"name":"tokenId","type":"uint256","internalType":"uint256"}],"outputs":[],"stateMutability":"payable"},{"type":"function","name":"transferOwnership","inputs":[{"name":"newOwner","type":"address","internalType":"address"}],"outputs":[],"stateMutability":"nonpayable"},{"type":"function","name":"withdraw","inputs":[],"outputs":[],"stateMutability":"nonpayable"},{"type":"event","name":"Approval","inputs":[{"name":"owner","type":"address","indexed":true,"internalType":"address"},{"name":"approved","type":"address","indexed":true,"internalType":"address"},{"name":"tokenId","type":"uint256","indexed":true,"internalType":"uint256"}],"anonymous":false},{"type":"event","name":"ApprovalForAll","inputs":[{"name":"owner","type":"address","indexed":true,"internalType":"address"},{"name":"operator","type":"address","indexed":true,"internalType":"address"},{"name":"approved","type":"bool","indexed":false,"internalType":"bool"}],"anonymous":false},{"type":"event","name":"ConsecutiveTransfer","inputs":[{"name":"fromTokenId","type":"uint256","indexed":true,"internalType":"uint256"},{"name":"toTokenId","type":"uint256","indexed":false,"internalType":"uint256"},{"name":"from","type":"address","indexed":true,"internalType":"address"},{"name":"to","type":"address","indexed":true,"internalType":"address"}],"anonymous":false},{"type":"event","name":"OwnershipTransferStarted","inputs":[{"name":"previousOwner","type":"address","indexed":true,"internalType":"address"},{"name":"newOwner","type":"address","indexed":true,"internalType":"address"}],"anonymous":false},{"type":"event","name":"OwnershipTransferred","inputs":[{"name":"previousOwner","type":"address","indexed":true,"internalType":"address"},{"name":"newOwner","type":"address","indexed":true,"internalType":"address"}],"anonymous":false},{"type":"event","name":"Transfer","inputs":[{"name":"from","type":"address","indexed":true,"internalType":"address"},{"name":"to","type":"address","indexed":true,"internalType":"address"},{"name":"tokenId","type":"uint256","indexed":true,"internalType":"uint256"}],"anonymous":false},{"type":"error","name":"AllowlistMintUnauthorized","inputs":[]},{"type":"error","name":"AllowlistNotLive","inputs":[]},{"type":"error","name":"ApprovalCallerNotOwnerNorApproved","inputs":[]},{"type":"error","name":"ApprovalQueryForNonexistentToken","inputs":[]},{"type":"error","name":"BalanceQueryForZeroAddress","inputs":[]},{"type":"error","name":"InsufficientPayment","inputs":[]},{"type":"error","name":"InvalidAllowlistWindow","inputs":[]},{"type":"error","name":"MintERC2309QuantityExceedsLimit","inputs":[]},{"type":"error","name":"MintExceeded","inputs":[]},{"type":"error","name":"MintNotLive","inputs":[]},{"type":"error","name":"MintToZeroAddress","inputs":[]},{"type":"error","name":"MintZeroQuantity","inputs":[]},{"type":"error","name":"OwnableInvalidOwner","inputs":[{"name":"owner","type":"address","internalType":"address"}]},{"type":"error","name":"OwnableUnauthorizedAccount","inputs":[{"name":"account","type":"address","internalType":"address"}]},{"type":"error","name":"OwnerQueryForNonexistentToken","inputs":[]},{"type":"error","name":"OwnershipNotInitializedForExtraData","inputs":[]},{"type":"error","name":"PublicMintNotLive","inputs":[]},{"type":"error","name":"SupplyExceeded","inputs":[]},{"type":"error","name":"TokenDoesNotExist","inputs":[]},{"type":"error","name":"TransferCallerNotOwnerNorApproved","inputs":[]},{"type":"error","name":"TransferFromIncorrectOwner","inputs":[]},{"type":"error","name":"TransferToNonERC721ReceiverImplementer","inputs":[]},{"type":"error","name":"TransferToZeroAddress","inputs":[]},{"type":"error","name":"URIQueryForNonexistentToken","inputs":[]}],"bytecode":{"object":"0x60a06040523480156200001157600080fd5b506040516200220938038062002209833981016040819052620000349162000323565b338b8b6002620000458382620004d9565b506003620000548282620004d9565b506000805550506001600160a01b0381166200008a57604051631e4fbdf760e01b81526000600482015260240160405180910390fd5b6200009581620001b6565b50836001600160401b0316856001600160401b03161115620000ca57604051630cb4a4fb60e31b815260040160405180910390fd5b846001600160401b0316600003620000f557604051630cb4a4fb60e31b815260040160405180910390fd5b600a8990556080889052600b80546001600160781b03888116600160781b026001600160f01b0319909216908a1617179055600c80546001600160401b03868116600160c01b026001600160c01b03918916600160801b02919091166001600160801b0390921691909117179055600d620001718282620004d9565b5050600c80546001600160401b0392831668010000000000000000026001600160801b0319909116929093169190911791909117905550620005a59650505050505050565b600980546001600160a01b0319169055620001d181620001d4565b50565b600880546001600160a01b038381166001600160a01b0319831681179093556040519116919082907f8be0079c531659141344cd1fd0a4f28419497f9722a3daafe3b4186f6b6457e090600090a35050565b634e487b7160e01b600052604160045260246000fd5b600082601f8301126200024e57600080fd5b81516001600160401b03808211156200026b576200026b62000226565b604051601f8301601f19908116603f0116810190828211818310171562000296576200029662000226565b8160405283815260209250866020858801011115620002b457600080fd5b600091505b83821015620002d85785820183015181830184015290820190620002b9565b6000602085830101528094505050505092915050565b80516001600160781b03811681146200030657600080fd5b919050565b80516001600160401b03811681146200030657600080fd5b60008060008060008060008060008060006101608c8e0312156200034657600080fd5b8b516001600160401b038111156200035d57600080fd5b6200036b8e828f016200023c565b60208e0151909c5090506001600160401b038111156200038a57600080fd5b620003988e828f016200023c565b9a505060408c0151985060608c01519750620003b760808d01620002ee565b9650620003c760a08d01620002ee565b9550620003d760c08d016200030b565b9450620003e760e08d016200030b565b9350620003f86101008d016200030b565b9250620004096101208d016200030b565b6101408d01519092506001600160401b038111156200042757600080fd5b620004358e828f016200023c565b9150509295989b509295989b9093969950565b600181811c908216806200045d57607f821691505b6020821081036200047e57634e487b7160e01b600052602260045260246000fd5b50919050565b601f821115620004d4576000816000526020600020601f850160051c81016020861015620004af5750805b601f850160051c820191505b81811015620004d057828155600101620004bb565b5050505b505050565b81516001600160401b03811115620004f557620004f562000226565b6200050d8162000506845462000448565b8462000484565b602080601f8311600181146200054557600084156200052c5750858301515b600019600386901b1c1916600185901b178555620004d0565b600085815260208120601f198616915b82811015620005765788860151825594840194600190910190840162000555565b5085821015620005955787850151600019600388901b60f8161c191681555b5050505050600190811b01905550565b608051611c3a620005cf600039600081816103b0015281816109170152610ce30152611c3a6000f3fe60806040526004361061021a5760003560e01c806379ba509711610123578063a22cb465116100ab578063d0f3a0a71161006f578063d0f3a0a714610627578063e30c39781461064e578063e985e9c51461066c578063ec0d75571461068c578063f2fde38b146106a157600080fd5b8063a22cb4651461058d578063b88d4fde146105ad578063bcb49d9e146105c0578063c87b56dd146105e0578063cabadaa01461060057600080fd5b8063957aa58c116100f2578063957aa58c1461050157806395d89b41146105225780639c9c666914610537578063a035b1fe1461054d578063a0bcfc7f1461056d57600080fd5b806379ba50971461046f5780638da5cb5b146104845780638e0acd12146104a257806390967a52146104c257600080fd5b806323b872dd116101a657806342842e0e1161017557806342842e0e146103e75780635b722460146103fa5780636352211e1461041a57806370a082311461043a578063715018a61461045a57600080fd5b806323b872dd146103785780632db115441461038b57806332cb6b0c1461039e5780633ccfd60b146103d257600080fd5b806308a4d141116101ed57806308a4d141146102d0578063095ea7b31461030f5780631338a83f14610322578063152f6e121461033557806318160ddd1461035557600080fd5b806301ffc9a71461021f57806306fdde031461025457806307c8c64014610276578063081812fc14610298575b600080fd5b34801561022b57600080fd5b5061023f61023a3660046115dc565b6106c1565b60405190151581526020015b60405180910390f35b34801561026057600080fd5b50610269610713565b60405161024b9190611649565b34801561028257600080fd5b50610296610291366004611673565b6107a5565b005b3480156102a457600080fd5b506102b86102b33660046116a6565b6107de565b6040516001600160a01b03909116815260200161024b565b3480156102dc57600080fd5b50600c546102f790600160c01b90046001600160401b031681565b6040516001600160401b03909116815260200161024b565b61029661031d3660046116d6565b610819565b610296610330366004611700565b610829565b34801561034157600080fd5b50610296610350366004611791565b610a17565b34801561036157600080fd5b50600154600054035b60405190815260200161024b565b6102966103863660046117bb565b610ac2565b6102966103993660046116a6565b610c27565b3480156103aa57600080fd5b5061036a7f000000000000000000000000000000000000000000000000000000000000000081565b3480156103de57600080fd5b50610296610d74565b6102966103f53660046117bb565b610dd4565b34801561040657600080fd5b50610296610415366004611791565b610df4565b34801561042657600080fd5b506102b86104353660046116a6565b610e36565b34801561044657600080fd5b5061036a6104553660046117f7565b610e41565b34801561046657600080fd5b50610296610e86565b34801561047b57600080fd5b50610296610e9a565b34801561049057600080fd5b506008546001600160a01b03166102b8565b3480156104ae57600080fd5b506102966104bd3660046116a6565b610ee0565b3480156104ce57600080fd5b50600b546104e990600160781b90046001600160781b031681565b6040516001600160781b03909116815260200161024b565b34801561050d57600080fd5b50600b5461023f90600160f01b900460ff1681565b34801561052e57600080fd5b50610269610eed565b34801561054357600080fd5b5061036a600a5481565b34801561055957600080fd5b50600b546104e9906001600160781b031681565b34801561057957600080fd5b50610296610588366004611812565b610efc565b34801561059957600080fd5b506102966105a8366004611883565b610f11565b6102966105bb3660046118d5565b610f7d565b3480156105cc57600080fd5b50600c546102f7906001600160401b031681565b3480156105ec57600080fd5b506102696105fb3660046116a6565b610fb8565b34801561060c57600080fd5b50600c546102f790600160401b90046001600160401b031681565b34801561063357600080fd5b50600c546102f790600160801b90046001600160401b031681565b34801561065a57600080fd5b506009546001600160a01b03166102b8565b34801561067857600080fd5b5061023f6106873660046119b0565b6110bf565b34801561069857600080fd5b506102966110ed565b3480156106ad57600080fd5b506102966106bc3660046117f7565b611116565b60006301ffc9a760e01b6001600160e01b0319831614806106f257506380ac58cd60e01b6001600160e01b03198316145b8061070d5750635b5e139f60e01b6001600160e01b03198316145b92915050565b606060028054610722906119da565b80601f016020809104026020016040519081016040528092919081815260200182805461074e906119da565b801561079b5780601f106107705761010080835404028352916020019161079b565b820191906000526020600020905b81548152906001019060200180831161077e57829003601f168201915b5050505050905090565b6107ad611187565b600b80546001600160781b03928316600160781b026001600160f01b03199091169290931691909117919091179055565b60006107e9826111b4565b6107fd576107fd6333d1c03960e21b6111f9565b506000908152600660205260409020546001600160a01b031690565b61082582826001611203565b5050565b600b54600160f01b900460ff1661085357604051630aea1c5d60e01b815260040160405180910390fd5b600c54600160801b90046001600160401b031642101561088957604051600162bc0d6d60e01b0319815260040160405180910390fd5b600c54600160c01b90046001600160401b03164211156108bf57604051600162bc0d6d60e01b0319815260040160405180910390fd5b336000908152600560205260408082205483911c6001600160401b03166108e69190611a2a565b600c549091506001600160401b03168111156109155760405163024fcb2160e01b815260040160405180910390fd5b7f00000000000000000000000000000000000000000000000000000000000000008261094060005490565b61094a9190611a2a565b111561096957604051637d3d824960e01b815260040160405180910390fd5b600a546040516bffffffffffffffffffffffff193360601b1660208201526109ae918691869190603401604051602081830303815290604052805190602001206112a6565b6109cb5760405163b08da18760e01b815260040160405180910390fd5b600b546109e890600160781b90046001600160781b031683611a3d565b3414610a075760405163cd1c886760e01b815260040160405180910390fd5b610a1133836112e0565b50505050565b610a1f611187565b806001600160401b0316826001600160401b03161115610a5257604051630cb4a4fb60e31b815260040160405180910390fd5b816001600160401b0316600003610a7c57604051630cb4a4fb60e31b815260040160405180910390fd5b600c80546fffffffffffffffffffffffffffffffff16600160801b6001600160401b03948516026001600160c01b031617600160c01b9290931691909102919091179055565b6000610acd8261139f565b6001600160a01b039485169490915081168414610af357610af362a1148160e81b6111f9565b60008281526006602052604090208054338082146001600160a01b03881690911417610b3757610b2386336110bf565b610b3757610b37632ce44b5f60e11b6111f9565b8015610b4257600082555b6001600160a01b038681166000908152600560205260408082208054600019019055918716808252919020805460010190554260a01b17600160e11b17600085815260046020526040812091909155600160e11b84169003610bd457600184016000818152600460205260408120549003610bd2576000548114610bd25760008181526004602052604090208490555b505b6001600160a01b0385168481887fddf252ad1be2c89b69c2b068fc378daa952ba7f163c4a11628f55a4df523b3ef600080a480600003610c1e57610c1e633a954ecd60e21b6111f9565b50505050505050565b600b54600160f01b900460ff16610c5157604051630aea1c5d60e01b815260040160405180910390fd5b600c54600160c01b90046001600160401b0316421015610c84576040516310d3e4c960e01b815260040160405180910390fd5b336000908152600560205260408082205483911c6001600160401b0316610cab9190611a2a565b600c54909150600160401b90046001600160401b0316811115610ce15760405163024fcb2160e01b815260040160405180910390fd5b7f000000000000000000000000000000000000000000000000000000000000000082610d0c60005490565b610d169190611a2a565b1115610d3557604051637d3d824960e01b815260040160405180910390fd5b600b54610d4b906001600160781b031683611a3d565b3414610d6a5760405163cd1c886760e01b815260040160405180910390fd5b61082533836112e0565b610d7c611187565b604051600090339047908381818185875af1925050503d8060008114610dbe576040519150601f19603f3d011682016040523d82523d6000602084013e610dc3565b606091505b5050905080610dd157600080fd5b50565b610def83838360405180602001604052806000815250610f7d565b505050565b610dfc611187565b600c80546001600160401b03928316600160401b026fffffffffffffffffffffffffffffffff199091169290931691909117919091179055565b600061070d8261139f565b60006001600160a01b038216610e6157610e616323d3ad8160e21b6111f9565b506001600160a01b03166000908152600560205260409020546001600160401b031690565b610e8e611187565b610e986000611435565b565b60095433906001600160a01b03168114610ed75760405163118cdaa760e01b81526001600160a01b03821660048201526024015b60405180910390fd5b610dd181611435565b610ee8611187565b600a55565b606060038054610722906119da565b610f04611187565b600d610def828483611aa4565b3360008181526007602090815260408083206001600160a01b03871680855290835292819020805460ff191686151590811790915590519081529192917f17307eab39ab6107e8899845ad3d59bd9653f200f220920489ca2b5937696c31910160405180910390a35050565b610f88848484610ac2565b6001600160a01b0383163b15610a1157610fa48484848461144e565b610a1157610a116368d2bf6b60e11b6111f9565b6060610fc3826111b4565b610fe05760405163677510db60e11b815260040160405180910390fd5b6000600d8054610fef906119da565b80601f016020809104026020016040519081016040528092919081815260200182805461101b906119da565b80156110685780601f1061103d57610100808354040283529160200191611068565b820191906000526020600020905b81548152906001019060200180831161104b57829003601f168201915b50505050509050805160000361108d57604051806020016040528060008152506110b8565b8061109784611530565b6040516020016110a8929190611b64565b6040516020818303038152906040525b9392505050565b6001600160a01b03918216600090815260076020908152604080832093909416825291909152205460ff1690565b6110f5611187565b600b805460ff60f01b198116600160f01b9182900460ff1615909102179055565b61111e611187565b600980546001600160a01b0383166001600160a01b0319909116811790915561114f6008546001600160a01b031690565b6001600160a01b03167f38d16b8cac22d99fc7c124b9cd0de2d3fa1faef420bfe791d8c362d765e2270060405160405180910390a350565b6008546001600160a01b03163314610e985760405163118cdaa760e01b8152336004820152602401610ece565b600080548210156111f45760005b50600082815260046020526040812054908190036111ea576111e383611b93565b92506111c2565b600160e01b161590505b919050565b8060005260046000fd5b600061120e83610e36565b90508180156112265750336001600160a01b03821614155b156112495761123581336110bf565b611249576112496367d9dca160e11b6111f9565b60008381526006602052604080822080546001600160a01b0319166001600160a01b0388811691821790925591518693918516917f8c5be1e5ebec7d5bd14f71427d1e84f3dd0314c0f7b2291e5b200ac8c7c3b92591a450505050565b600083156112d8578360051b8501855b803580851160051b948552602094851852604060002093018181106112b65750505b501492915050565b60008054908290036112fc576112fc63b562e8dd60e01b6111f9565b60008181526004602090815260408083206001600160a01b0387164260a01b6001881460e11b1781179091558084526005909252822080546801000000000000000186020190559081900361135a5761135a622e076360e81b6111f9565b818301825b808360007fddf252ad1be2c89b69c2b068fc378daa952ba7f163c4a11628f55a4df523b3ef600080a481816001019150810361135f575060005550505050565b600081815260046020526040812054908190036114125760005482106113cf576113cf636f96cda160e11b6111f9565b5b506000190160008181526004602052604090205480156113d057600160e01b81166000036113fd57919050565b61140d636f96cda160e11b6111f9565b6113d0565b600160e01b811660000361142557919050565b6111f4636f96cda160e11b6111f9565b600980546001600160a01b0319169055610dd181611574565b604051630a85bd0160e11b81526000906001600160a01b0385169063150b7a0290611483903390899088908890600401611baa565b6020604051808303816000875af19250505080156114be575060408051601f3d908101601f191682019092526114bb91810190611be7565b60015b611513573d8080156114ec576040519150601f19603f3d011682016040523d82523d6000602084013e6114f1565b606091505b50805160000361150b5761150b6368d2bf6b60e11b6111f9565b805181602001fd5b6001600160e01b031916630a85bd0160e11b149050949350505050565b60606080604051019050602081016040526000815280600019835b928101926030600a8206018453600a90048061154b575050819003601f19909101908152919050565b600880546001600160a01b038381166001600160a01b0319831681179093556040519116919082907f8be0079c531659141344cd1fd0a4f28419497f9722a3daafe3b4186f6b6457e090600090a35050565b6001600160e01b031981168114610dd157600080fd5b6000602082840312156115ee57600080fd5b81356110b8816115c6565b60005b838110156116145781810151838201526020016115fc565b50506000910152565b600081518084526116358160208601602086016115f9565b601f01601f19169290920160200192915050565b6020815260006110b8602083018461161d565b80356001600160781b03811681146111f457600080fd5b6000806040838503121561168657600080fd5b61168f8361165c565b915061169d6020840161165c565b90509250929050565b6000602082840312156116b857600080fd5b5035919050565b80356001600160a01b03811681146111f457600080fd5b600080604083850312156116e957600080fd5b6116f2836116bf565b946020939093013593505050565b60008060006040848603121561171557600080fd5b83356001600160401b038082111561172c57600080fd5b818601915086601f83011261174057600080fd5b81358181111561174f57600080fd5b8760208260051b850101111561176457600080fd5b6020928301989097509590910135949350505050565b80356001600160401b03811681146111f457600080fd5b600080604083850312156117a457600080fd5b6117ad8361177a565b915061169d6020840161177a565b6000806000606084860312156117d057600080fd5b6117d9846116bf565b92506117e7602085016116bf565b9150604084013590509250925092565b60006020828403121561180957600080fd5b6110b8826116bf565b6000806020838503121561182557600080fd5b82356001600160401b038082111561183c57600080fd5b818501915085601f83011261185057600080fd5b81358181111561185f57600080fd5b86602082850101111561187157600080fd5b60209290920196919550909350505050565b6000806040838503121561189657600080fd5b61189f836116bf565b9150602083013580151581146118b457600080fd5b809150509250929050565b634e487b7160e01b600052604160045260246000fd5b600080600080608085870312156118eb57600080fd5b6118f4856116bf565b9350611902602086016116bf565b92506040850135915060608501356001600160401b038082111561192557600080fd5b818701915087601f83011261193957600080fd5b81358181111561194b5761194b6118bf565b604051601f8201601f19908116603f01168101908382118183101715611973576119736118bf565b816040528281528a602084870101111561198c57600080fd5b82602086016020830137600060208483010152809550505050505092959194509250565b600080604083850312156119c357600080fd5b6119cc836116bf565b915061169d602084016116bf565b600181811c908216806119ee57607f821691505b602082108103611a0e57634e487b7160e01b600052602260045260246000fd5b50919050565b634e487b7160e01b600052601160045260246000fd5b8082018082111561070d5761070d611a14565b808202811582820484141761070d5761070d611a14565b601f821115610def576000816000526020600020601f850160051c81016020861015611a7d5750805b601f850160051c820191505b81811015611a9c57828155600101611a89565b505050505050565b6001600160401b03831115611abb57611abb6118bf565b611acf83611ac983546119da565b83611a54565b6000601f841160018114611b035760008515611aeb5750838201355b600019600387901b1c1916600186901b178355611b5d565b600083815260209020601f19861690835b82811015611b345786850135825560209485019460019092019101611b14565b5086821015611b515760001960f88860031b161c19848701351681555b505060018560011b0183555b5050505050565b60008351611b768184602088016115f9565b835190830190611b8a8183602088016115f9565b01949350505050565b600081611ba257611ba2611a14565b506000190190565b6001600160a01b0385811682528416602082015260408101839052608060608201819052600090611bdd9083018461161d565b9695505050505050565b600060208284031215611bf957600080fd5b81516110b8816115c656fea26469706673582212202d5f155993800ee87b19154c35985348065468eed06f4682330bb4050e9c77f864736f6c63430008170033","linkReferences":{}},"methodIdentifiers":{"MAX_SUPPLY()":"32cb6b0c","acceptOwnership()":"79ba5097","allowlistClose()":"08a4d141","allowlistMint(bytes32[],uint256)":"1338a83f","allowlistOpen()":"d0f3a0a7","allowlistPrice()":"90967a52","allowlistRoot()":"9c9c6669","approve(address,uint256)":"095ea7b3","balanceOf(address)":"70a08231","getApproved(uint256)":"081812fc","isApprovedForAll(address,address)":"e985e9c5","live()":"957aa58c","maxAllowlistMint()":"bcb49d9e","maxPublicMint()":"cabadaa0","name()":"06fdde03","owner()":"8da5cb5b","ownerOf(uint256)":"6352211e","pendingOwner()":"e30c3978","price()":"a035b1fe","publicMint(uint256)":"2db11544","renounceOwnership()":"715018a6","safeTransferFrom(address,address,uint256)":"42842e0e","safeTransferFrom(address,address,uint256,bytes)":"b88d4fde","setAllowlistMintWindow(uint64,uint64)":"152f6e12","setAllowlistRoot(bytes32)":"8e0acd12","setApprovalForAll(address,bool)":"a22cb465","setBaseUri(string)":"a0bcfc7f","setMaxMints(uint64,uint64)":"5b722460","setPrices(uint120,uint120)":"07c8c640","supportsInterface(bytes4)":"01ffc9a7","symbol()":"95d89b41","toggleLive()":"ec0d7557","tokenURI(uint256)":"c87b56dd","totalSupply()":"18160ddd","transferFrom(address,address,uint256)":"23b872dd","transferOwnership(address)":"f2fde38b","withdraw()":"3ccfd60b"},"id":61}